{
  "contractName": "food_history",
  "abi": [
    {
      "inputs": [
        {
          "internalType": "string",
          "name": "_code",
          "type": "string"
        },
        {
          "internalType": "string",
          "name": "_name",
          "type": "string"
        },
        {
          "internalType": "string",
          "name": "_type",
          "type": "string"
        }
      ],
      "name": "regist_food",
      "outputs": [],
      "stateMutability": "nonpayable",
      "type": "function"
    },
    {
      "inputs": [
        {
          "internalType": "string",
          "name": "_code",
          "type": "string"
        },
        {
          "internalType": "uint256",
          "name": "_price",
          "type": "uint256"
        }
      ],
      "name": "regist_price",
      "outputs": [],
      "stateMutability": "nonpayable",
      "type": "function"
    },
    {
      "inputs": [
        {
          "internalType": "string",
          "name": "_code",
          "type": "string"
        }
      ],
      "name": "change_state",
      "outputs": [],
      "stateMutability": "nonpayable",
      "type": "function"
    },
    {
      "inputs": [
        {
          "internalType": "string",
          "name": "_code",
          "type": "string"
        },
        {
          "internalType": "string",
          "name": "_hist",
          "type": "string"
        }
      ],
      "name": "add_hist",
      "outputs": [],
      "stateMutability": "nonpayable",
      "type": "function"
    },
    {
      "inputs": [
        {
          "internalType": "string",
          "name": "_code",
          "type": "string"
        }
      ],
      "name": "view_food",
      "outputs": [
        {
          "internalType": "string",
          "name": "",
          "type": "string"
        },
        {
          "internalType": "string",
          "name": "",
          "type": "string"
        },
        {
          "internalType": "string[]",
          "name": "",
          "type": "string[]"
        },
        {
          "internalType": "address",
          "name": "",
          "type": "address"
        },
        {
          "internalType": "uint256",
          "name": "",
          "type": "uint256"
        },
        {
          "internalType": "uint8",
          "name": "",
          "type": "uint8"
        }
      ],
      "stateMutability": "view",
      "type": "function",
      "constant": true
    }
  ],
  "bytecode": "0x608060405234801561001057600080fd5b5061120d806100206000396000f3fe608060405234801561001057600080fd5b50600436106100575760003560e01c80635b7ef9d91461005c578063682e190f1461009157806398788a67146100ad578063c13bd807146100c9578063c6b194ee146100e5575b600080fd5b610076600480360381019061007191906108fb565b610101565b60405161008896959493929190610b45565b60405180910390f35b6100ab60048036038101906100a69190610bbb565b610416565b005b6100c760048036038101906100c29190610c5f565b6104e1565b005b6100e360048036038101906100de91906108fb565b61057e565b005b6100ff60048036038101906100fa9190610cbb565b610630565b005b606080606060008060008060008860405161011c9190610d9e565b9081526020016040518091039020600101805461013890610de4565b80601f016020809104026020016040519081016040528092919081815260200182805461016490610de4565b80156101b15780601f10610186576101008083540402835291602001916101b1565b820191906000526020600020905b81548152906001019060200180831161019457829003601f168201915b50505050509050600080896040516101c99190610d9e565b908152602001604051809103902060030180546101e590610de4565b80601f016020809104026020016040519081016040528092919081815260200182805461021190610de4565b801561025e5780601f106102335761010080835404028352916020019161025e565b820191906000526020600020905b81548152906001019060200180831161024157829003601f168201915b505050505090506000808a6040516102769190610d9e565b9081526020016040518091039020600401805480602002602001604051908101604052809291908181526020016000905b828210156103535783829060005260206000200180546102c690610de4565b80601f01602080910402602001604051908101604052809291908181526020018280546102f290610de4565b801561033f5780601f106103145761010080835404028352916020019161033f565b820191906000526020600020905b81548152906001019060200180831161032257829003601f168201915b5050505050815260200190600101906102a7565b5050505090506000808b60405161036a9190610d9e565b908152602001604051809103902060020160009054906101000a900473ffffffffffffffffffffffffffffffffffffffff1690506000808c6040516103af9190610d9e565b90815260200160405180910390206005015490506000808d6040516103d49190610d9e565b908152602001604051809103902060000160009054906101000a900460ff1690508585858585859b509b509b509b509b509b5050505050505091939550919395565b600080836040516104279190610d9e565b908152602001604051809103902060000160009054906101000a900460ff1660ff1603610489576040517f08c379a000000000000000000000000000000000000000000000000000000000815260040161048090610e61565b60405180910390fd5b6000826040516104999190610d9e565b9081526020016040518091039020600401819080600181540180825580915050600190039060005260206000200160009091909190915090816104dc919061102d565b505050565b600080836040516104f29190610d9e565b908152602001604051809103902060000160009054906101000a900460ff1660ff1603610554576040517f08c379a000000000000000000000000000000000000000000000000000000000815260040161054b90610e61565b60405180910390fd5b806000836040516105659190610d9e565b9081526020016040518091039020600501819055505050565b60016000826040516105909190610d9e565b908152602001604051809103902060000160009054906101000a900460ff1660ff16146105f2576040517f08c379a00000000000000000000000000000000000000000000000000000000081526004016105e99061114b565b60405180910390fd5b60096000826040516106049190610d9e565b908152602001604051809103902060000160006101000a81548160ff021916908360ff16021790555050565b600080846040516106419190610d9e565b908152602001604051809103902060000160009054906101000a900460ff1660ff16146106a3576040517f08c379a000000000000000000000000000000000000000000000000000000000815260040161069a906111b7565b60405180910390fd5b816000846040516106b49190610d9e565b908152602001604051809103902060010190816106d1919061102d565b50806000846040516106e39190610d9e565b90815260200160405180910390206003019081610700919061102d565b5060016000846040516107139190610d9e565b908152602001604051809103902060000160006101000a81548160ff021916908360ff1602179055503360008460405161074d9190610d9e565b908152602001604051809103902060020160006101000a81548173ffffffffffffffffffffffffffffffffffffffff021916908373ffffffffffffffffffffffffffffffffffffffff160217905550505050565b6000604051905090565b600080fd5b600080fd5b600080fd5b600080fd5b6000601f19601f8301169050919050565b7f4e487b7100000000000000000000000000000000000000000000000000000000600052604160045260246000fd5b610808826107bf565b810181811067ffffffffffffffff82111715610827576108266107d0565b5b80604052505050565b600061083a6107a1565b905061084682826107ff565b919050565b600067ffffffffffffffff821115610866576108656107d0565b5b61086f826107bf565b9050602081019050919050565b82818337600083830152505050565b600061089e6108998461084b565b610830565b9050828152602081018484840111156108ba576108b96107ba565b5b6108c584828561087c565b509392505050565b600082601f8301126108e2576108e16107b5565b5b81356108f284826020860161088b565b91505092915050565b600060208284031215610911576109106107ab565b5b600082013567ffffffffffffffff81111561092f5761092e6107b0565b5b61093b848285016108cd565b91505092915050565b600081519050919050565b600082825260208201905092915050565b60005b8381101561097e578082015181840152602081019050610963565b60008484015250505050565b600061099582610944565b61099f818561094f565b93506109af818560208601610960565b6109b8816107bf565b840191505092915050565b600081519050919050565b600082825260208201905092915050565b6000819050602082019050919050565b600082825260208201905092915050565b6000610a0b82610944565b610a1581856109ef565b9350610a25818560208601610960565b610a2e816107bf565b840191505092915050565b6000610a458383610a00565b905092915050565b6000602082019050919050565b6000610a65826109c3565b610a6f81856109ce565b935083602082028501610a81856109df565b8060005b85811015610abd5784840389528151610a9e8582610a39565b9450610aa983610a4d565b925060208a01995050600181019050610a85565b50829750879550505050505092915050565b600073ffffffffffffffffffffffffffffffffffffffff82169050919050565b6000610afa82610acf565b9050919050565b610b0a81610aef565b82525050565b6000819050919050565b610b2381610b10565b82525050565b600060ff82169050919050565b610b3f81610b29565b82525050565b600060c0820190508181036000830152610b5f818961098a565b90508181036020830152610b73818861098a565b90508181036040830152610b878187610a5a565b9050610b966060830186610b01565b610ba36080830185610b1a565b610bb060a0830184610b36565b979650505050505050565b60008060408385031215610bd257610bd16107ab565b5b600083013567ffffffffffffffff811115610bf057610bef6107b0565b5b610bfc858286016108cd565b925050602083013567ffffffffffffffff811115610c1d57610c1c6107b0565b5b610c29858286016108cd565b9150509250929050565b610c3c81610b10565b8114610c4757600080fd5b50565b600081359050610c5981610c33565b92915050565b60008060408385031215610c7657610c756107ab565b5b600083013567ffffffffffffffff811115610c9457610c936107b0565b5b610ca0858286016108cd565b9250506020610cb185828601610c4a565b9150509250929050565b600080600060608486031215610cd457610cd36107ab565b5b600084013567ffffffffffffffff811115610cf257610cf16107b0565b5b610cfe868287016108cd565b935050602084013567ffffffffffffffff811115610d1f57610d1e6107b0565b5b610d2b868287016108cd565b925050604084013567ffffffffffffffff811115610d4c57610d4b6107b0565b5b610d58868287016108cd565b9150509250925092565b600081905092915050565b6000610d7882610944565b610d828185610d62565b9350610d92818560208601610960565b80840191505092915050565b6000610daa8284610d6d565b915081905092915050565b7f4e487b7100000000000000000000000000000000000000000000000000000000600052602260045260246000fd5b60006002820490506001821680610dfc57607f821691505b602082108103610e0f57610e0e610db5565b5b50919050565b7f6e6f7420657869737420666f6f64000000000000000000000000000000000000600082015250565b6000610e4b600e8361094f565b9150610e5682610e15565b602082019050919050565b60006020820190508181036000830152610e7a81610e3e565b9050919050565b60008190508160005260206000209050919050565b60006020601f8301049050919050565b600082821b905092915050565b600060088302610ee37fffffffffffffffffffffffffffffffffffffffffffffffffffffffffffffffff82610ea6565b610eed8683610ea6565b95508019841693508086168417925050509392505050565b6000819050919050565b6000610f2a610f25610f2084610b10565b610f05565b610b10565b9050919050565b6000819050919050565b610f4483610f0f565b610f58610f5082610f31565b848454610eb3565b825550505050565b600090565b610f6d610f60565b610f78818484610f3b565b505050565b5b81811015610f9c57610f91600082610f65565b600181019050610f7e565b5050565b601f821115610fe157610fb281610e81565b610fbb84610e96565b81016020851015610fca578190505b610fde610fd685610e96565b830182610f7d565b50505b505050565b600082821c905092915050565b600061100460001984600802610fe6565b1980831691505092915050565b600061101d8383610ff3565b9150826002028217905092915050565b61103682610944565b67ffffffffffffffff81111561104f5761104e6107d0565b5b6110598254610de4565b611064828285610fa0565b600060209050601f8311600181146110975760008415611085578287015190505b61108f8582611011565b8655506110f7565b601f1984166110a586610e81565b60005b828110156110cd578489015182556001820191506020850194506020810190506110a8565b868310156110ea57848901516110e6601f891682610ff3565b8355505b6001600288020188555050505b505050505050565b7f6572726f72000000000000000000000000000000000000000000000000000000600082015250565b600061113560058361094f565b9150611140826110ff565b602082019050919050565b6000602082019050818103600083015261116481611128565b9050919050565b7f657869737420666f6f6400000000000000000000000000000000000000000000600082015250565b60006111a1600a8361094f565b91506111ac8261116b565b602082019050919050565b600060208201905081810360008301526111d081611194565b905091905056fea26469706673582212202ba2519c1d57499bab33f720ac5f3e1561b0de29bec6c5fbf406088c271e161f64736f6c63430008120033",
  "immutableReferences": {},
  "source": "// SPDX-License-Identifier: MIT\r\npragma solidity >=0.4.0 <0.9.0;\r\n\r\ncontract food_history{\r\n\r\n    //   \r\n    struct history{\r\n        uint8 _state;\r\n        string _name;\r\n        address _wallet;\r\n        string _type;\r\n        string[] _hist;\r\n        uint _price;\r\n    }\r\n\r\n    // mapping \r\n    mapping (string => history) internal foods;\r\n\r\n    //    \r\n    function regist_food(\r\n        string memory _code, \r\n        string memory _name, \r\n        string memory _type\r\n    ) public {\r\n        // code      \r\n        require(foods[_code]._state == 0, \"exist food\");\r\n        foods[_code]._name = _name;\r\n        foods[_code]._type = _type;\r\n        foods[_code]._state = 1;\r\n        foods[_code]._wallet = msg.sender;\r\n    }\r\n\r\n    //      \r\n    function regist_price(\r\n        string memory _code, \r\n        uint _price\r\n    )public {\r\n        require(foods[_code]._state != 0, \"not exist food\");\r\n        foods[_code]._price = _price;\r\n    }\r\n\r\n    //      \r\n    function change_state(\r\n        string memory _code\r\n    ) public {\r\n        require(foods[_code]._state == 1, 'error');\r\n        foods[_code]._state = 9;\r\n    }\r\n\r\n    //      \r\n    function add_hist(\r\n        string memory _code, \r\n        string memory _hist\r\n    ) public {\r\n        // code    \r\n        require(foods[_code]._state != 0, \"not exist food\");\r\n        //      \r\n        //    \r\n        foods[_code]._hist.push(_hist);\r\n    }\r\n\r\n    // mapping    \r\n    function view_food(\r\n        string memory _code\r\n    ) public view returns (\r\n        string memory, \r\n        string memory, \r\n        string[] memory, \r\n        address, \r\n        uint, \r\n        uint8){\r\n            string memory _name = foods[_code]._name;\r\n            string memory _type = foods[_code]._type;\r\n            string[] memory _hist = foods[_code]._hist;\r\n            address _wallet = foods[_code]._wallet;\r\n            uint _price = foods[_code]._price;\r\n            uint8 _state = foods[_code]._state;\r\n            return (_name, _type, _hist, _wallet, _price, _state);\r\n        }\r\n\r\n\r\n}",
  "sourcePath": "C:\\Users\\moons\\Documents\\GitHub\\masan_block\\food_history\\contracts\\food_history.sol",
  "compiler": {
    "name": "solc",
    "version": "0.8.18+commit.87f61d96.Emscripten.clang"
  },
  "schemaVersion": "3.4.14",
  "updatedAt": "2023-05-31T13:00:14.089Z",
  "networkType": "ethereum",
  "devdoc": {
    "kind": "dev",
    "methods": {},
    "version": 1
  },
  "userdoc": {
    "kind": "user",
    "methods": {},
    "version": 1
  }
}