{
  "contractName": "food_history",
  "abi": [
    {
      "inputs": [
        {
          "internalType": "string",
          "name": "_code",
          "type": "string"
        },
        {
          "internalType": "string",
          "name": "_name",
          "type": "string"
        },
        {
          "internalType": "string",
          "name": "_type",
          "type": "string"
        }
      ],
      "name": "regist_food",
      "outputs": [],
      "stateMutability": "nonpayable",
      "type": "function"
    },
    {
      "inputs": [
        {
          "internalType": "string",
          "name": "_code",
          "type": "string"
        },
        {
          "internalType": "string",
          "name": "_hist",
          "type": "string"
        }
      ],
      "name": "add_hist",
      "outputs": [],
      "stateMutability": "nonpayable",
      "type": "function"
    },
    {
      "inputs": [
        {
          "internalType": "string",
          "name": "_code",
          "type": "string"
        }
      ],
      "name": "view_food",
      "outputs": [
        {
          "internalType": "string",
          "name": "",
          "type": "string"
        },
        {
          "internalType": "string",
          "name": "",
          "type": "string"
        },
        {
          "internalType": "string[]",
          "name": "",
          "type": "string[]"
        }
      ],
      "stateMutability": "view",
      "type": "function",
      "constant": true
    }
  ],
  "bytecode": "0x608060405234801561001057600080fd5b50610dd4806100206000396000f3fe608060405234801561001057600080fd5b50600436106100415760003560e01c80635b7ef9d914610046578063682e190f14610078578063c6b194ee14610094575b600080fd5b610060600480360381019061005b919061064c565b6100b0565b60405161006f93929190610820565b60405180910390f35b610092600480360381019061008d919061086c565b610316565b005b6100ae60048036038101906100a991906108e4565b6103e1565b005b6060806060600080856040516100c691906109c7565b908152602001604051809103902060010180546100e290610a0d565b80601f016020809104026020016040519081016040528092919081815260200182805461010e90610a0d565b801561015b5780601f106101305761010080835404028352916020019161015b565b820191906000526020600020905b81548152906001019060200180831161013e57829003601f168201915b505050505090506000808660405161017391906109c7565b9081526020016040518091039020600201805461018f90610a0d565b80601f01602080910402602001604051908101604052809291908181526020018280546101bb90610a0d565b80156102085780601f106101dd57610100808354040283529160200191610208565b820191906000526020600020905b8154815290600101906020018083116101eb57829003601f168201915b505050505090506000808760405161022091906109c7565b9081526020016040518091039020600301805480602002602001604051908101604052809291908181526020016000905b828210156102fd57838290600052602060002001805461027090610a0d565b80601f016020809104026020016040519081016040528092919081815260200182805461029c90610a0d565b80156102e95780601f106102be576101008083540402835291602001916102e9565b820191906000526020600020905b8154815290600101906020018083116102cc57829003601f168201915b505050505081526020019060010190610251565b5050505090508282829550955095505050509193909250565b6000808360405161032791906109c7565b908152602001604051809103902060000160009054906101000a900460ff1660ff1603610389576040517f08c379a000000000000000000000000000000000000000000000000000000000815260040161038090610a8a565b60405180910390fd5b60008260405161039991906109c7565b9081526020016040518091039020600301819080600181540180825580915050600190039060005260206000200160009091909190915090816103dc9190610c60565b505050565b600080846040516103f291906109c7565b908152602001604051809103902060000160009054906101000a900460ff1660ff1614610454576040517f08c379a000000000000000000000000000000000000000000000000000000000815260040161044b90610d7e565b60405180910390fd5b8160008460405161046591906109c7565b908152602001604051809103902060010190816104829190610c60565b508060008460405161049491906109c7565b908152602001604051809103902060020190816104b19190610c60565b5060016000846040516104c491906109c7565b908152602001604051809103902060000160006101000a81548160ff021916908360ff160217905550505050565b6000604051905090565b600080fd5b600080fd5b600080fd5b600080fd5b6000601f19601f8301169050919050565b7f4e487b7100000000000000000000000000000000000000000000000000000000600052604160045260246000fd5b61055982610510565b810181811067ffffffffffffffff8211171561057857610577610521565b5b80604052505050565b600061058b6104f2565b90506105978282610550565b919050565b600067ffffffffffffffff8211156105b7576105b6610521565b5b6105c082610510565b9050602081019050919050565b82818337600083830152505050565b60006105ef6105ea8461059c565b610581565b90508281526020810184848401111561060b5761060a61050b565b5b6106168482856105cd565b509392505050565b600082601f83011261063357610632610506565b5b81356106438482602086016105dc565b91505092915050565b600060208284031215610662576106616104fc565b5b600082013567ffffffffffffffff8111156106805761067f610501565b5b61068c8482850161061e565b91505092915050565b600081519050919050565b600082825260208201905092915050565b60005b838110156106cf5780820151818401526020810190506106b4565b60008484015250505050565b60006106e682610695565b6106f081856106a0565b93506107008185602086016106b1565b61070981610510565b840191505092915050565b600081519050919050565b600082825260208201905092915050565b6000819050602082019050919050565b600082825260208201905092915050565b600061075c82610695565b6107668185610740565b93506107768185602086016106b1565b61077f81610510565b840191505092915050565b60006107968383610751565b905092915050565b6000602082019050919050565b60006107b682610714565b6107c0818561071f565b9350836020820285016107d285610730565b8060005b8581101561080e57848403895281516107ef858261078a565b94506107fa8361079e565b925060208a019950506001810190506107d6565b50829750879550505050505092915050565b6000606082019050818103600083015261083a81866106db565b9050818103602083015261084e81856106db565b9050818103604083015261086281846107ab565b9050949350505050565b60008060408385031215610883576108826104fc565b5b600083013567ffffffffffffffff8111156108a1576108a0610501565b5b6108ad8582860161061e565b925050602083013567ffffffffffffffff8111156108ce576108cd610501565b5b6108da8582860161061e565b9150509250929050565b6000806000606084860312156108fd576108fc6104fc565b5b600084013567ffffffffffffffff81111561091b5761091a610501565b5b6109278682870161061e565b935050602084013567ffffffffffffffff81111561094857610947610501565b5b6109548682870161061e565b925050604084013567ffffffffffffffff81111561097557610974610501565b5b6109818682870161061e565b9150509250925092565b600081905092915050565b60006109a182610695565b6109ab818561098b565b93506109bb8185602086016106b1565b80840191505092915050565b60006109d38284610996565b915081905092915050565b7f4e487b7100000000000000000000000000000000000000000000000000000000600052602260045260246000fd5b60006002820490506001821680610a2557607f821691505b602082108103610a3857610a376109de565b5b50919050565b7f6e6f7420657869737420666f6f64000000000000000000000000000000000000600082015250565b6000610a74600e836106a0565b9150610a7f82610a3e565b602082019050919050565b60006020820190508181036000830152610aa381610a67565b9050919050565b60008190508160005260206000209050919050565b60006020601f8301049050919050565b600082821b905092915050565b600060088302610b0c7fffffffffffffffffffffffffffffffffffffffffffffffffffffffffffffffff82610acf565b610b168683610acf565b95508019841693508086168417925050509392505050565b6000819050919050565b6000819050919050565b6000610b5d610b58610b5384610b2e565b610b38565b610b2e565b9050919050565b6000819050919050565b610b7783610b42565b610b8b610b8382610b64565b848454610adc565b825550505050565b600090565b610ba0610b93565b610bab818484610b6e565b505050565b5b81811015610bcf57610bc4600082610b98565b600181019050610bb1565b5050565b601f821115610c1457610be581610aaa565b610bee84610abf565b81016020851015610bfd578190505b610c11610c0985610abf565b830182610bb0565b50505b505050565b600082821c905092915050565b6000610c3760001984600802610c19565b1980831691505092915050565b6000610c508383610c26565b9150826002028217905092915050565b610c6982610695565b67ffffffffffffffff811115610c8257610c81610521565b5b610c8c8254610a0d565b610c97828285610bd3565b600060209050601f831160018114610cca5760008415610cb8578287015190505b610cc28582610c44565b865550610d2a565b601f198416610cd886610aaa565b60005b82811015610d0057848901518255600182019150602085019450602081019050610cdb565b86831015610d1d5784890151610d19601f891682610c26565b8355505b6001600288020188555050505b505050505050565b7f657869737420666f6f6400000000000000000000000000000000000000000000600082015250565b6000610d68600a836106a0565b9150610d7382610d32565b602082019050919050565b60006020820190508181036000830152610d9781610d5b565b905091905056fea2646970667358221220c194135430b9b4b34d5b7eb8b48d54736ef4493eff291a6aa15ffd2959856d0d64736f6c63430008120033",
  "immutableReferences": {},
  "source": "// SPDX-License-Identifier: MIT\r\npragma solidity >=0.4.0 <0.9.0;\r\n\r\ncontract food_history{\r\n\r\n    //   \r\n    struct history{\r\n        uint8 _state;\r\n        string _name;\r\n        string _type;\r\n        string[] _hist;\r\n    }\r\n\r\n    // mapping \r\n    mapping (string => history) internal foods;\r\n\r\n    //    \r\n    function regist_food(\r\n        string memory _code, \r\n        string memory _name, \r\n        string memory _type\r\n    ) public {\r\n        // code      \r\n        require(foods[_code]._state == 0, \"exist food\");\r\n        foods[_code]._name = _name;\r\n        foods[_code]._type = _type;\r\n        foods[_code]._state = 1;\r\n    }\r\n\r\n    //      \r\n    function add_hist(\r\n        string memory _code, \r\n        string memory _hist\r\n    ) public {\r\n        // code    \r\n        require(foods[_code]._state != 0, \"not exist food\");\r\n        //      \r\n        //    \r\n        foods[_code]._hist.push(_hist);\r\n    }\r\n\r\n    // mapping    \r\n    function view_food(\r\n        string memory _code\r\n    ) public view returns (\r\n        string memory, \r\n        string memory, \r\n        string[] memory){\r\n            string memory _name = foods[_code]._name;\r\n            string memory _type = foods[_code]._type;\r\n            string[] memory _hist = foods[_code]._hist;\r\n            return (_name, _type, _hist);\r\n        }\r\n\r\n\r\n}",
  "sourcePath": "C:\\Users\\moons\\Documents\\GitHub\\masan_block\\food_history\\contracts\\food_history.sol",
  "compiler": {
    "name": "solc",
    "version": "0.8.18+commit.87f61d96.Emscripten.clang"
  },
  "schemaVersion": "3.4.14",
  "updatedAt": "2023-05-30T12:06:29.299Z",
  "networkType": "ethereum",
  "devdoc": {
    "kind": "dev",
    "methods": {},
    "version": 1
  },
  "userdoc": {
    "kind": "user",
    "methods": {},
    "version": 1
  }
}