{
  "contractName": "food_history",
  "abi": [
    {
      "inputs": [
        {
          "internalType": "string",
          "name": "_code",
          "type": "string"
        },
        {
          "internalType": "string",
          "name": "_name",
          "type": "string"
        },
        {
          "internalType": "string",
          "name": "_type",
          "type": "string"
        },
        {
          "internalType": "address",
          "name": "_address",
          "type": "address"
        }
      ],
      "name": "regist_food",
      "outputs": [],
      "stateMutability": "nonpayable",
      "type": "function"
    },
    {
      "inputs": [
        {
          "internalType": "string",
          "name": "_code",
          "type": "string"
        },
        {
          "internalType": "uint256",
          "name": "_price",
          "type": "uint256"
        }
      ],
      "name": "regist_price",
      "outputs": [],
      "stateMutability": "nonpayable",
      "type": "function"
    },
    {
      "inputs": [
        {
          "internalType": "string",
          "name": "_code",
          "type": "string"
        }
      ],
      "name": "change_state",
      "outputs": [],
      "stateMutability": "nonpayable",
      "type": "function"
    },
    {
      "inputs": [
        {
          "internalType": "string",
          "name": "_code",
          "type": "string"
        },
        {
          "internalType": "string",
          "name": "_hist",
          "type": "string"
        }
      ],
      "name": "add_hist",
      "outputs": [],
      "stateMutability": "nonpayable",
      "type": "function"
    },
    {
      "inputs": [
        {
          "internalType": "string",
          "name": "_code",
          "type": "string"
        }
      ],
      "name": "view_food",
      "outputs": [
        {
          "internalType": "string",
          "name": "",
          "type": "string"
        },
        {
          "internalType": "string",
          "name": "",
          "type": "string"
        },
        {
          "internalType": "string[]",
          "name": "",
          "type": "string[]"
        },
        {
          "internalType": "address",
          "name": "",
          "type": "address"
        },
        {
          "internalType": "uint256",
          "name": "",
          "type": "uint256"
        },
        {
          "internalType": "uint8",
          "name": "",
          "type": "uint8"
        }
      ],
      "stateMutability": "view",
      "type": "function",
      "constant": true
    }
  ],
  "bytecode": "0x608060405234801561001057600080fd5b5061124e806100206000396000f3fe608060405234801561001057600080fd5b50600436106100575760003560e01c80635b7ef9d91461005c578063682e190f1461009157806398788a67146100ad578063c13bd807146100c9578063f03e6102146100e5575b600080fd5b610076600480360381019061007191906108fc565b610101565b60405161008896959493929190610b46565b60405180910390f35b6100ab60048036038101906100a69190610bbc565b610416565b005b6100c760048036038101906100c29190610c60565b6104e1565b005b6100e360048036038101906100de91906108fc565b61057e565b005b6100ff60048036038101906100fa9190610ce8565b610630565b005b606080606060008060008060008860405161011c9190610ddf565b9081526020016040518091039020600101805461013890610e25565b80601f016020809104026020016040519081016040528092919081815260200182805461016490610e25565b80156101b15780601f10610186576101008083540402835291602001916101b1565b820191906000526020600020905b81548152906001019060200180831161019457829003601f168201915b50505050509050600080896040516101c99190610ddf565b908152602001604051809103902060030180546101e590610e25565b80601f016020809104026020016040519081016040528092919081815260200182805461021190610e25565b801561025e5780601f106102335761010080835404028352916020019161025e565b820191906000526020600020905b81548152906001019060200180831161024157829003601f168201915b505050505090506000808a6040516102769190610ddf565b9081526020016040518091039020600401805480602002602001604051908101604052809291908181526020016000905b828210156103535783829060005260206000200180546102c690610e25565b80601f01602080910402602001604051908101604052809291908181526020018280546102f290610e25565b801561033f5780601f106103145761010080835404028352916020019161033f565b820191906000526020600020905b81548152906001019060200180831161032257829003601f168201915b5050505050815260200190600101906102a7565b5050505090506000808b60405161036a9190610ddf565b908152602001604051809103902060020160009054906101000a900473ffffffffffffffffffffffffffffffffffffffff1690506000808c6040516103af9190610ddf565b90815260200160405180910390206005015490506000808d6040516103d49190610ddf565b908152602001604051809103902060000160009054906101000a900460ff1690508585858585859b509b509b509b509b509b5050505050505091939550919395565b600080836040516104279190610ddf565b908152602001604051809103902060000160009054906101000a900460ff1660ff1603610489576040517f08c379a000000000000000000000000000000000000000000000000000000000815260040161048090610ea2565b60405180910390fd5b6000826040516104999190610ddf565b9081526020016040518091039020600401819080600181540180825580915050600190039060005260206000200160009091909190915090816104dc919061106e565b505050565b600080836040516104f29190610ddf565b908152602001604051809103902060000160009054906101000a900460ff1660ff1603610554576040517f08c379a000000000000000000000000000000000000000000000000000000000815260040161054b90610ea2565b60405180910390fd5b806000836040516105659190610ddf565b9081526020016040518091039020600501819055505050565b60016000826040516105909190610ddf565b908152602001604051809103902060000160009054906101000a900460ff1660ff16146105f2576040517f08c379a00000000000000000000000000000000000000000000000000000000081526004016105e99061118c565b60405180910390fd5b60096000826040516106049190610ddf565b908152602001604051809103902060000160006101000a81548160ff021916908360ff16021790555050565b600080856040516106419190610ddf565b908152602001604051809103902060000160009054906101000a900460ff1660ff16146106a3576040517f08c379a000000000000000000000000000000000000000000000000000000000815260040161069a906111f8565b60405180910390fd5b826000856040516106b49190610ddf565b908152602001604051809103902060010190816106d1919061106e565b50816000856040516106e39190610ddf565b90815260200160405180910390206003019081610700919061106e565b5060016000856040516107139190610ddf565b908152602001604051809103902060000160006101000a81548160ff021916908360ff1602179055508060008560405161074d9190610ddf565b908152602001604051809103902060020160006101000a81548173ffffffffffffffffffffffffffffffffffffffff021916908373ffffffffffffffffffffffffffffffffffffffff16021790555050505050565b6000604051905090565b600080fd5b600080fd5b600080fd5b600080fd5b6000601f19601f8301169050919050565b7f4e487b7100000000000000000000000000000000000000000000000000000000600052604160045260246000fd5b610809826107c0565b810181811067ffffffffffffffff82111715610828576108276107d1565b5b80604052505050565b600061083b6107a2565b90506108478282610800565b919050565b600067ffffffffffffffff821115610867576108666107d1565b5b610870826107c0565b9050602081019050919050565b82818337600083830152505050565b600061089f61089a8461084c565b610831565b9050828152602081018484840111156108bb576108ba6107bb565b5b6108c684828561087d565b509392505050565b600082601f8301126108e3576108e26107b6565b5b81356108f384826020860161088c565b91505092915050565b600060208284031215610912576109116107ac565b5b600082013567ffffffffffffffff8111156109305761092f6107b1565b5b61093c848285016108ce565b91505092915050565b600081519050919050565b600082825260208201905092915050565b60005b8381101561097f578082015181840152602081019050610964565b60008484015250505050565b600061099682610945565b6109a08185610950565b93506109b0818560208601610961565b6109b9816107c0565b840191505092915050565b600081519050919050565b600082825260208201905092915050565b6000819050602082019050919050565b600082825260208201905092915050565b6000610a0c82610945565b610a1681856109f0565b9350610a26818560208601610961565b610a2f816107c0565b840191505092915050565b6000610a468383610a01565b905092915050565b6000602082019050919050565b6000610a66826109c4565b610a7081856109cf565b935083602082028501610a82856109e0565b8060005b85811015610abe5784840389528151610a9f8582610a3a565b9450610aaa83610a4e565b925060208a01995050600181019050610a86565b50829750879550505050505092915050565b600073ffffffffffffffffffffffffffffffffffffffff82169050919050565b6000610afb82610ad0565b9050919050565b610b0b81610af0565b82525050565b6000819050919050565b610b2481610b11565b82525050565b600060ff82169050919050565b610b4081610b2a565b82525050565b600060c0820190508181036000830152610b60818961098b565b90508181036020830152610b74818861098b565b90508181036040830152610b888187610a5b565b9050610b976060830186610b02565b610ba46080830185610b1b565b610bb160a0830184610b37565b979650505050505050565b60008060408385031215610bd357610bd26107ac565b5b600083013567ffffffffffffffff811115610bf157610bf06107b1565b5b610bfd858286016108ce565b925050602083013567ffffffffffffffff811115610c1e57610c1d6107b1565b5b610c2a858286016108ce565b9150509250929050565b610c3d81610b11565b8114610c4857600080fd5b50565b600081359050610c5a81610c34565b92915050565b60008060408385031215610c7757610c766107ac565b5b600083013567ffffffffffffffff811115610c9557610c946107b1565b5b610ca1858286016108ce565b9250506020610cb285828601610c4b565b9150509250929050565b610cc581610af0565b8114610cd057600080fd5b50565b600081359050610ce281610cbc565b92915050565b60008060008060808587031215610d0257610d016107ac565b5b600085013567ffffffffffffffff811115610d2057610d1f6107b1565b5b610d2c878288016108ce565b945050602085013567ffffffffffffffff811115610d4d57610d4c6107b1565b5b610d59878288016108ce565b935050604085013567ffffffffffffffff811115610d7a57610d796107b1565b5b610d86878288016108ce565b9250506060610d9787828801610cd3565b91505092959194509250565b600081905092915050565b6000610db982610945565b610dc38185610da3565b9350610dd3818560208601610961565b80840191505092915050565b6000610deb8284610dae565b915081905092915050565b7f4e487b7100000000000000000000000000000000000000000000000000000000600052602260045260246000fd5b60006002820490506001821680610e3d57607f821691505b602082108103610e5057610e4f610df6565b5b50919050565b7f6e6f7420657869737420666f6f64000000000000000000000000000000000000600082015250565b6000610e8c600e83610950565b9150610e9782610e56565b602082019050919050565b60006020820190508181036000830152610ebb81610e7f565b9050919050565b60008190508160005260206000209050919050565b60006020601f8301049050919050565b600082821b905092915050565b600060088302610f247fffffffffffffffffffffffffffffffffffffffffffffffffffffffffffffffff82610ee7565b610f2e8683610ee7565b95508019841693508086168417925050509392505050565b6000819050919050565b6000610f6b610f66610f6184610b11565b610f46565b610b11565b9050919050565b6000819050919050565b610f8583610f50565b610f99610f9182610f72565b848454610ef4565b825550505050565b600090565b610fae610fa1565b610fb9818484610f7c565b505050565b5b81811015610fdd57610fd2600082610fa6565b600181019050610fbf565b5050565b601f82111561102257610ff381610ec2565b610ffc84610ed7565b8101602085101561100b578190505b61101f61101785610ed7565b830182610fbe565b50505b505050565b600082821c905092915050565b600061104560001984600802611027565b1980831691505092915050565b600061105e8383611034565b9150826002028217905092915050565b61107782610945565b67ffffffffffffffff8111156110905761108f6107d1565b5b61109a8254610e25565b6110a5828285610fe1565b600060209050601f8311600181146110d857600084156110c6578287015190505b6110d08582611052565b865550611138565b601f1984166110e686610ec2565b60005b8281101561110e578489015182556001820191506020850194506020810190506110e9565b8683101561112b5784890151611127601f891682611034565b8355505b6001600288020188555050505b505050505050565b7f6572726f72000000000000000000000000000000000000000000000000000000600082015250565b6000611176600583610950565b915061118182611140565b602082019050919050565b600060208201905081810360008301526111a581611169565b9050919050565b7f657869737420666f6f6400000000000000000000000000000000000000000000600082015250565b60006111e2600a83610950565b91506111ed826111ac565b602082019050919050565b60006020820190508181036000830152611211816111d5565b905091905056fea26469706673582212200b038890072f5eaf4753ef0291d2f0ed7c710b9e40f2f307f5ebb93f1033d67964736f6c63430008120033",
  "immutableReferences": {},
  "source": "// SPDX-License-Identifier: MIT\r\npragma solidity >=0.4.0 <0.9.0;\r\n\r\ncontract food_history{\r\n\r\n    //   \r\n    struct history{\r\n        uint8 _state;\r\n        string _name;\r\n        address _wallet;\r\n        string _type;\r\n        string[] _hist;\r\n        uint _price;\r\n    }\r\n\r\n    // mapping \r\n    mapping (string => history) internal foods;\r\n\r\n    //    \r\n    function regist_food(\r\n        string memory _code, \r\n        string memory _name, \r\n        string memory _type, \r\n        address _address\r\n    ) public {\r\n        // code      \r\n        require(foods[_code]._state == 0, \"exist food\");\r\n        foods[_code]._name = _name;\r\n        foods[_code]._type = _type;\r\n        foods[_code]._state = 1;\r\n        foods[_code]._wallet = _address;\r\n    }\r\n\r\n    //      \r\n    function regist_price(\r\n        string memory _code, \r\n        uint _price\r\n    )public {\r\n        require(foods[_code]._state != 0, \"not exist food\");\r\n        foods[_code]._price = _price;\r\n    }\r\n\r\n    //      \r\n    function change_state(\r\n        string memory _code\r\n    ) public {\r\n        require(foods[_code]._state == 1, 'error');\r\n        foods[_code]._state = 9;\r\n    }\r\n\r\n    //      \r\n    function add_hist(\r\n        string memory _code, \r\n        string memory _hist\r\n    ) public {\r\n        // code    \r\n        require(foods[_code]._state != 0, \"not exist food\");\r\n        //      \r\n        //    \r\n        foods[_code]._hist.push(_hist);\r\n    }\r\n\r\n    // mapping    \r\n    function view_food(\r\n        string memory _code\r\n    ) public view returns (\r\n        string memory, \r\n        string memory, \r\n        string[] memory, \r\n        address, \r\n        uint, \r\n        uint8){\r\n            string memory _name = foods[_code]._name;\r\n            string memory _type = foods[_code]._type;\r\n            string[] memory _hist = foods[_code]._hist;\r\n            address _wallet = foods[_code]._wallet;\r\n            uint _price = foods[_code]._price;\r\n            uint8 _state = foods[_code]._state;\r\n            return (_name, _type, _hist, _wallet, _price, _state);\r\n        }\r\n\r\n\r\n}",
  "sourcePath": "C:\\Users\\moons\\Documents\\GitHub\\masan_block\\food_history\\contracts\\food_history.sol",
  "compiler": {
    "name": "solc",
    "version": "0.8.18+commit.87f61d96.Emscripten.clang"
  },
  "schemaVersion": "3.4.14",
  "updatedAt": "2023-06-07T07:55:04.986Z",
  "networkType": "ethereum",
  "devdoc": {
    "kind": "dev",
    "methods": {},
    "version": 1
  },
  "userdoc": {
    "kind": "user",
    "methods": {},
    "version": 1
  }
}