{
  "contractName": "board2",
  "abi": [
    {
      "inputs": [],
      "stateMutability": "nonpayable",
      "type": "constructor"
    },
    {
      "inputs": [
        {
          "internalType": "string",
          "name": "_title",
          "type": "string"
        },
        {
          "internalType": "string",
          "name": "_content",
          "type": "string"
        },
        {
          "internalType": "string",
          "name": "_writer",
          "type": "string"
        },
        {
          "internalType": "string",
          "name": "_image",
          "type": "string"
        }
      ],
      "name": "add_content",
      "outputs": [],
      "stateMutability": "nonpayable",
      "type": "function"
    },
    {
      "inputs": [
        {
          "internalType": "uint256",
          "name": "_no",
          "type": "uint256"
        }
      ],
      "name": "view_content",
      "outputs": [
        {
          "internalType": "uint256",
          "name": "",
          "type": "uint256"
        },
        {
          "internalType": "string",
          "name": "",
          "type": "string"
        },
        {
          "internalType": "string",
          "name": "",
          "type": "string"
        },
        {
          "internalType": "string",
          "name": "",
          "type": "string"
        },
        {
          "internalType": "string",
          "name": "",
          "type": "string"
        }
      ],
      "stateMutability": "view",
      "type": "function",
      "constant": true
    },
    {
      "inputs": [],
      "name": "view_count",
      "outputs": [
        {
          "internalType": "uint256",
          "name": "",
          "type": "uint256"
        }
      ],
      "stateMutability": "view",
      "type": "function",
      "constant": true
    }
  ],
  "bytecode": "0x608060405234801561001057600080fd5b506001600081905550610b55806100286000396000f3fe608060405234801561001057600080fd5b50600436106100415760003560e01c80631f2008ab1461004657806339c614a11461007a578063a1ab5f5b14610098575b600080fd5b610060600480360381019061005b9190610468565b6100b4565b604051610071959493929190610534565b60405180910390f35b610082610364565b60405161008f91906105a3565b60405180910390f35b6100b260048036038101906100ad91906106f3565b61036d565b005b600060608060608060006001600088815260200190815260200160002060000180546100df906107f9565b80601f016020809104026020016040519081016040528092919081815260200182805461010b906107f9565b80156101585780601f1061012d57610100808354040283529160200191610158565b820191906000526020600020905b81548152906001019060200180831161013b57829003601f168201915b505050505090506000600160008981526020019081526020016000206001018054610182906107f9565b80601f01602080910402602001604051908101604052809291908181526020018280546101ae906107f9565b80156101fb5780601f106101d0576101008083540402835291602001916101fb565b820191906000526020600020905b8154815290600101906020018083116101de57829003601f168201915b505050505090506000600160008a81526020019081526020016000206002018054610225906107f9565b80601f0160208091040260200160405190810160405280929190818152602001828054610251906107f9565b801561029e5780601f106102735761010080835404028352916020019161029e565b820191906000526020600020905b81548152906001019060200180831161028157829003601f168201915b505050505090506000600160008b815260200190815260200160002060030180546102c8906107f9565b80601f01602080910402602001604051908101604052809291908181526020018280546102f4906107f9565b80156103415780601f1061031657610100808354040283529160200191610341565b820191906000526020600020905b81548152906001019060200180831161032457829003601f168201915b505050505090508984848484985098509850985098505050505091939590929450565b60008054905090565b836001600080548152602001908152602001600020600001908161039191906109d6565b5082600160008054815260200190815260200160002060010190816103b691906109d6565b5081600160008054815260200190815260200160002060020190816103db91906109d6565b50806001600080548152602001908152602001600020600301908161040091906109d6565b5060008081548092919061041390610ad7565b919050555050505050565b6000604051905090565b600080fd5b600080fd5b6000819050919050565b61044581610432565b811461045057600080fd5b50565b6000813590506104628161043c565b92915050565b60006020828403121561047e5761047d610428565b5b600061048c84828501610453565b91505092915050565b61049e81610432565b82525050565b600081519050919050565b600082825260208201905092915050565b60005b838110156104de5780820151818401526020810190506104c3565b60008484015250505050565b6000601f19601f8301169050919050565b6000610506826104a4565b61051081856104af565b93506105208185602086016104c0565b610529816104ea565b840191505092915050565b600060a0820190506105496000830188610495565b818103602083015261055b81876104fb565b9050818103604083015261056f81866104fb565b9050818103606083015261058381856104fb565b9050818103608083015261059781846104fb565b90509695505050505050565b60006020820190506105b86000830184610495565b92915050565b600080fd5b600080fd5b7f4e487b7100000000000000000000000000000000000000000000000000000000600052604160045260246000fd5b610600826104ea565b810181811067ffffffffffffffff8211171561061f5761061e6105c8565b5b80604052505050565b600061063261041e565b905061063e82826105f7565b919050565b600067ffffffffffffffff82111561065e5761065d6105c8565b5b610667826104ea565b9050602081019050919050565b82818337600083830152505050565b600061069661069184610643565b610628565b9050828152602081018484840111156106b2576106b16105c3565b5b6106bd848285610674565b509392505050565b600082601f8301126106da576106d96105be565b5b81356106ea848260208601610683565b91505092915050565b6000806000806080858703121561070d5761070c610428565b5b600085013567ffffffffffffffff81111561072b5761072a61042d565b5b610737878288016106c5565b945050602085013567ffffffffffffffff8111156107585761075761042d565b5b610764878288016106c5565b935050604085013567ffffffffffffffff8111156107855761078461042d565b5b610791878288016106c5565b925050606085013567ffffffffffffffff8111156107b2576107b161042d565b5b6107be878288016106c5565b91505092959194509250565b7f4e487b7100000000000000000000000000000000000000000000000000000000600052602260045260246000fd5b6000600282049050600182168061081157607f821691505b602082108103610824576108236107ca565b5b50919050565b60008190508160005260206000209050919050565b60006020601f8301049050919050565b600082821b905092915050565b60006008830261088c7fffffffffffffffffffffffffffffffffffffffffffffffffffffffffffffffff8261084f565b610896868361084f565b95508019841693508086168417925050509392505050565b6000819050919050565b60006108d36108ce6108c984610432565b6108ae565b610432565b9050919050565b6000819050919050565b6108ed836108b8565b6109016108f9826108da565b84845461085c565b825550505050565b600090565b610916610909565b6109218184846108e4565b505050565b5b818110156109455761093a60008261090e565b600181019050610927565b5050565b601f82111561098a5761095b8161082a565b6109648461083f565b81016020851015610973578190505b61098761097f8561083f565b830182610926565b50505b505050565b600082821c905092915050565b60006109ad6000198460080261098f565b1980831691505092915050565b60006109c6838361099c565b9150826002028217905092915050565b6109df826104a4565b67ffffffffffffffff8111156109f8576109f76105c8565b5b610a0282546107f9565b610a0d828285610949565b600060209050601f831160018114610a405760008415610a2e578287015190505b610a3885826109ba565b865550610aa0565b601f198416610a4e8661082a565b60005b82811015610a7657848901518255600182019150602085019450602081019050610a51565b86831015610a935784890151610a8f601f89168261099c565b8355505b6001600288020188555050505b505050505050565b7f4e487b7100000000000000000000000000000000000000000000000000000000600052601160045260246000fd5b6000610ae282610432565b91507fffffffffffffffffffffffffffffffffffffffffffffffffffffffffffffffff8203610b1457610b13610aa8565b5b60018201905091905056fea264697066735822122034db11f23d8c9648dd16a80dd1234b71ea26db3192e4808a268616168d84314364736f6c63430008130033",
  "immutableReferences": {},
  "source": "// SPDX-License-Identifier: MIT\r\npragma solidity = 0.8.19;\r\n\r\ncontract board2{\r\n\r\n    //    \r\n    uint internal count;\r\n\r\n\r\n    //    :      \r\n    constructor(){\r\n        count=1;\r\n    }\r\n\r\n    //    \r\n    struct contents_info{\r\n        string title;\r\n        string content;\r\n        string writer;\r\n        string image;\r\n    }\r\n\r\n    // mapping  \r\n    mapping(uint=>contents_info) internal contents;\r\n\r\n\r\n    //    \r\n    function add_content(\r\n        string memory _title, \r\n        string memory _content, \r\n        string memory _writer, \r\n        string memory _image\r\n    ) public{\r\n        contents[count].title = _title;\r\n        contents[count].content = _content;\r\n        contents[count].writer = _writer;\r\n        contents[count].image = _image;\r\n        // mapping      1 \r\n        count++;\r\n    }\r\n    //    \r\n    function view_content(uint _no) public view returns (\r\n        uint,\r\n        string memory, \r\n        string memory, \r\n        string memory, \r\n        string memory){\r\n            string memory title = contents[_no].title;\r\n            string memory content = contents[_no].content;\r\n            string memory writer = contents[_no].writer;\r\n            string memory image = contents[_no].image;\r\n            return (_no, title, content, writer, image);\r\n        }\r\n\r\n    // count   \r\n    function view_count() public view returns(uint){\r\n        return (count);\r\n    }\r\n}",
  "sourcePath": "C:\\Users\\moons\\Documents\\GitHub\\masan_block\\contract_server_2\\contracts\\board2.sol",
  "compiler": {
    "name": "solc",
    "version": "0.8.19+commit.7dd6d404.Emscripten.clang"
  },
  "schemaVersion": "3.4.14",
  "updatedAt": "2023-06-08T10:50:45.264Z",
  "networkType": "ethereum",
  "devdoc": {
    "kind": "dev",
    "methods": {},
    "version": 1
  },
  "userdoc": {
    "kind": "user",
    "methods": {},
    "version": 1
  }
}