{
  "contractName": "board",
  "abi": [
    {
      "inputs": [
        {
          "internalType": "uint256",
          "name": "_no",
          "type": "uint256"
        },
        {
          "internalType": "string",
          "name": "_title",
          "type": "string"
        },
        {
          "internalType": "string",
          "name": "_content",
          "type": "string"
        },
        {
          "internalType": "string",
          "name": "_writer",
          "type": "string"
        },
        {
          "internalType": "string",
          "name": "_image",
          "type": "string"
        }
      ],
      "name": "add_content",
      "outputs": [],
      "stateMutability": "nonpayable",
      "type": "function"
    },
    {
      "inputs": [
        {
          "internalType": "uint256",
          "name": "_no",
          "type": "uint256"
        }
      ],
      "name": "view_content",
      "outputs": [
        {
          "internalType": "uint256",
          "name": "",
          "type": "uint256"
        },
        {
          "internalType": "string",
          "name": "",
          "type": "string"
        },
        {
          "internalType": "string",
          "name": "",
          "type": "string"
        },
        {
          "internalType": "string",
          "name": "",
          "type": "string"
        },
        {
          "internalType": "string",
          "name": "",
          "type": "string"
        }
      ],
      "stateMutability": "view",
      "type": "function",
      "constant": true
    },
    {
      "inputs": [],
      "name": "view_count",
      "outputs": [
        {
          "internalType": "uint256",
          "name": "",
          "type": "uint256"
        },
        {
          "internalType": "uint256[]",
          "name": "",
          "type": "uint256[]"
        }
      ],
      "stateMutability": "view",
      "type": "function",
      "constant": true
    }
  ],
  "bytecode": "0x608060405234801561001057600080fd5b50610c2a806100206000396000f3fe608060405234801561001057600080fd5b50600436106100415760003560e01c80631f2008ab1461004657806339c614a11461007a5780638100a4f714610099575b600080fd5b610060600480360381019061005b91906104cd565b6100b5565b604051610071959493929190610599565b60405180910390f35b610082610361565b6040516100909291906106c6565b60405180910390f35b6100b360048036038101906100ae919061082b565b6103c7565b005b6000606080606080600080600088815260200190815260200160002060000180546100df90610945565b80601f016020809104026020016040519081016040528092919081815260200182805461010b90610945565b80156101585780601f1061012d57610100808354040283529160200191610158565b820191906000526020600020905b81548152906001019060200180831161013b57829003601f168201915b505050505090506000806000898152602001908152602001600020600101805461018190610945565b80601f01602080910402602001604051908101604052809291908181526020018280546101ad90610945565b80156101fa5780601f106101cf576101008083540402835291602001916101fa565b820191906000526020600020905b8154815290600101906020018083116101dd57829003601f168201915b5050505050905060008060008a8152602001908152602001600020600201805461022390610945565b80601f016020809104026020016040519081016040528092919081815260200182805461024f90610945565b801561029c5780601f106102715761010080835404028352916020019161029c565b820191906000526020600020905b81548152906001019060200180831161027f57829003601f168201915b5050505050905060008060008b815260200190815260200160002060030180546102c590610945565b80601f01602080910402602001604051908101604052809291908181526020018280546102f190610945565b801561033e5780601f106103135761010080835404028352916020019161033e565b820191906000526020600020905b81548152906001019060200180831161032157829003601f168201915b505050505090508984848484985098509850985098505050505091939590929450565b600060606001805490506001808054806020026020016040519081016040528092919081815260200182805480156103b857602002820191906000526020600020905b8154815260200190600101908083116103a4575b50505050509050915091509091565b8360008087815260200190815260200160002060000190816103e99190610b22565b5082600080878152602001908152602001600020600101908161040c9190610b22565b5081600080878152602001908152602001600020600201908161042f9190610b22565b508060008087815260200190815260200160002060030190816104529190610b22565b5060018590806001815401808255809150506001900390600052602060002001600090919091909150555050505050565b6000604051905090565b600080fd5b600080fd5b6000819050919050565b6104aa81610497565b81146104b557600080fd5b50565b6000813590506104c7816104a1565b92915050565b6000602082840312156104e3576104e261048d565b5b60006104f1848285016104b8565b91505092915050565b61050381610497565b82525050565b600081519050919050565b600082825260208201905092915050565b60005b83811015610543578082015181840152602081019050610528565b60008484015250505050565b6000601f19601f8301169050919050565b600061056b82610509565b6105758185610514565b9350610585818560208601610525565b61058e8161054f565b840191505092915050565b600060a0820190506105ae60008301886104fa565b81810360208301526105c08187610560565b905081810360408301526105d48186610560565b905081810360608301526105e88185610560565b905081810360808301526105fc8184610560565b90509695505050505050565b600081519050919050565b600082825260208201905092915050565b6000819050602082019050919050565b61063d81610497565b82525050565b600061064f8383610634565b60208301905092915050565b6000602082019050919050565b600061067382610608565b61067d8185610613565b935061068883610624565b8060005b838110156106b95781516106a08882610643565b97506106ab8361065b565b92505060018101905061068c565b5085935050505092915050565b60006040820190506106db60008301856104fa565b81810360208301526106ed8184610668565b90509392505050565b600080fd5b600080fd5b7f4e487b7100000000000000000000000000000000000000000000000000000000600052604160045260246000fd5b6107388261054f565b810181811067ffffffffffffffff8211171561075757610756610700565b5b80604052505050565b600061076a610483565b9050610776828261072f565b919050565b600067ffffffffffffffff82111561079657610795610700565b5b61079f8261054f565b9050602081019050919050565b82818337600083830152505050565b60006107ce6107c98461077b565b610760565b9050828152602081018484840111156107ea576107e96106fb565b5b6107f58482856107ac565b509392505050565b600082601f830112610812576108116106f6565b5b81356108228482602086016107bb565b91505092915050565b600080600080600060a086880312156108475761084661048d565b5b6000610855888289016104b8565b955050602086013567ffffffffffffffff81111561087657610875610492565b5b610882888289016107fd565b945050604086013567ffffffffffffffff8111156108a3576108a2610492565b5b6108af888289016107fd565b935050606086013567ffffffffffffffff8111156108d0576108cf610492565b5b6108dc888289016107fd565b925050608086013567ffffffffffffffff8111156108fd576108fc610492565b5b610909888289016107fd565b9150509295509295909350565b7f4e487b7100000000000000000000000000000000000000000000000000000000600052602260045260246000fd5b6000600282049050600182168061095d57607f821691505b6020821081036109705761096f610916565b5b50919050565b60008190508160005260206000209050919050565b60006020601f8301049050919050565b600082821b905092915050565b6000600883026109d87fffffffffffffffffffffffffffffffffffffffffffffffffffffffffffffffff8261099b565b6109e2868361099b565b95508019841693508086168417925050509392505050565b6000819050919050565b6000610a1f610a1a610a1584610497565b6109fa565b610497565b9050919050565b6000819050919050565b610a3983610a04565b610a4d610a4582610a26565b8484546109a8565b825550505050565b600090565b610a62610a55565b610a6d818484610a30565b505050565b5b81811015610a9157610a86600082610a5a565b600181019050610a73565b5050565b601f821115610ad657610aa781610976565b610ab08461098b565b81016020851015610abf578190505b610ad3610acb8561098b565b830182610a72565b50505b505050565b600082821c905092915050565b6000610af960001984600802610adb565b1980831691505092915050565b6000610b128383610ae8565b9150826002028217905092915050565b610b2b82610509565b67ffffffffffffffff811115610b4457610b43610700565b5b610b4e8254610945565b610b59828285610a95565b600060209050601f831160018114610b8c5760008415610b7a578287015190505b610b848582610b06565b865550610bec565b601f198416610b9a86610976565b60005b82811015610bc257848901518255600182019150602085019450602081019050610b9d565b86831015610bdf5784890151610bdb601f891682610ae8565b8355505b6001600288020188555050505b50505050505056fea2646970667358221220fcc6c2f72da6885620678c12bdc5fb6b7312b903e98f31f9e49ce0631d7af99464736f6c63430008130033",
  "immutableReferences": {},
  "source": "// SPDX-License-Identifier: MIT\r\npragma solidity = 0.8.19;\r\n\r\ncontract board{\r\n\r\n\r\n    //    \r\n    struct contents_info{\r\n        string title;\r\n        string content;\r\n        string writer;\r\n        string image;\r\n    }\r\n\r\n    // mapping  \r\n    mapping(uint=>contents_info) internal contents;\r\n\r\n    //    \r\n    uint[] internal content_list ;\r\n\r\n    //    \r\n    function add_content(\r\n        uint _no,\r\n        string memory _title, \r\n        string memory _content, \r\n        string memory _writer, \r\n        string memory _image\r\n    ) public{\r\n        contents[_no].title = _title;\r\n        contents[_no].content = _content;\r\n        contents[_no].writer = _writer;\r\n        contents[_no].image = _image;\r\n        content_list.push(_no);\r\n    }\r\n    //    \r\n    function view_content(uint _no) public view returns (\r\n        uint,\r\n        string memory, \r\n        string memory, \r\n        string memory, \r\n        string memory){\r\n            string memory title = contents[_no].title;\r\n            string memory content = contents[_no].content;\r\n            string memory writer = contents[_no].writer;\r\n            string memory image = contents[_no].image;\r\n            return (_no, title, content, writer, image);\r\n        }\r\n\r\n    //       \r\n    function view_count() public view returns(uint, uint[] memory){\r\n        return (content_list.length, content_list);\r\n    }\r\n}",
  "sourcePath": "C:\\Users\\moons\\Documents\\GitHub\\masan_block\\contract_server_2\\contracts\\board.sol",
  "compiler": {
    "name": "solc",
    "version": "0.8.19+commit.7dd6d404.Emscripten.clang"
  },
  "schemaVersion": "3.4.14",
  "updatedAt": "2023-06-07T11:01:04.059Z",
  "networkType": "ethereum",
  "devdoc": {
    "kind": "dev",
    "methods": {},
    "version": 1
  },
  "userdoc": {
    "kind": "user",
    "methods": {},
    "version": 1
  }
}