{
  "contractName": "subcontract",
  "abi": [
    {
      "inputs": [
        {
          "internalType": "uint64",
          "name": "_no",
          "type": "uint64"
        },
        {
          "internalType": "string",
          "name": "_title",
          "type": "string"
        },
        {
          "internalType": "string",
          "name": "_contents",
          "type": "string"
        }
      ],
      "name": "add_contract",
      "outputs": [],
      "stateMutability": "nonpayable",
      "type": "function"
    },
    {
      "inputs": [
        {
          "internalType": "uint64",
          "name": "_no",
          "type": "uint64"
        }
      ],
      "name": "sign_contract",
      "outputs": [],
      "stateMutability": "nonpayable",
      "type": "function"
    },
    {
      "inputs": [
        {
          "internalType": "uint64",
          "name": "_no",
          "type": "uint64"
        }
      ],
      "name": "confirm_contract",
      "outputs": [],
      "stateMutability": "nonpayable",
      "type": "function"
    },
    {
      "inputs": [
        {
          "internalType": "uint64",
          "name": "_no",
          "type": "uint64"
        }
      ],
      "name": "refuse_contract",
      "outputs": [],
      "stateMutability": "nonpayable",
      "type": "function"
    },
    {
      "inputs": [
        {
          "internalType": "uint64",
          "name": "_no",
          "type": "uint64"
        }
      ],
      "name": "view_contract",
      "outputs": [
        {
          "internalType": "string",
          "name": "",
          "type": "string"
        },
        {
          "internalType": "string",
          "name": "",
          "type": "string"
        },
        {
          "internalType": "uint8",
          "name": "",
          "type": "uint8"
        },
        {
          "internalType": "address",
          "name": "",
          "type": "address"
        },
        {
          "internalType": "address",
          "name": "",
          "type": "address"
        }
      ],
      "stateMutability": "view",
      "type": "function",
      "constant": true
    },
    {
      "inputs": [],
      "name": "view_contracts",
      "outputs": [
        {
          "internalType": "uint64[]",
          "name": "",
          "type": "uint64[]"
        }
      ],
      "stateMutability": "view",
      "type": "function",
      "constant": true
    }
  ],
  "bytecode": "0x608060405234801561001057600080fd5b50610e97806100206000396000f3fe608060405234801561001057600080fd5b50600436106100625760003560e01c80638840abb314610067578063a577b33e14610083578063c64330c3146100b7578063d8033f69146100d5578063db3e0a77146100f1578063f9f9846c1461010d575b600080fd5b610081600480360381019061007c9190610755565b610129565b005b61009d60048036038101906100989190610755565b6101dd565b6040516100ae959493929190610878565b60405180910390f35b6100bf610444565b6040516100cc9190610997565b60405180910390f35b6100ef60048036038101906100ea9190610aee565b6104d0565b005b61010b60048036038101906101069190610755565b610599565b005b61012760048036038101906101229190610755565b61064d565b005b6000339050806000808467ffffffffffffffff1667ffffffffffffffff16815260200190815260200160002060030160006101000a81548173ffffffffffffffffffffffffffffffffffffffff021916908373ffffffffffffffffffffffffffffffffffffffff16021790555060016000808467ffffffffffffffff1667ffffffffffffffff16815260200190815260200160002060020160006101000a81548160ff021916908360ff1602179055505050565b6060806000806000806000808867ffffffffffffffff1667ffffffffffffffff168152602001908152602001600020600001805461021a90610ba8565b80601f016020809104026020016040519081016040528092919081815260200182805461024690610ba8565b80156102935780601f1061026857610100808354040283529160200191610293565b820191906000526020600020905b81548152906001019060200180831161027657829003601f168201915b5050505050905060008060008967ffffffffffffffff1667ffffffffffffffff16815260200190815260200160002060010180546102d090610ba8565b80601f01602080910402602001604051908101604052809291908181526020018280546102fc90610ba8565b80156103495780601f1061031e57610100808354040283529160200191610349565b820191906000526020600020905b81548152906001019060200180831161032c57829003601f168201915b5050505050905060008060008a67ffffffffffffffff1667ffffffffffffffff16815260200190815260200160002060020160009054906101000a900460ff16905060008060008b67ffffffffffffffff1667ffffffffffffffff16815260200190815260200160002060020160019054906101000a900473ffffffffffffffffffffffffffffffffffffffff16905060008060008c67ffffffffffffffff1667ffffffffffffffff16815260200190815260200160002060030160009054906101000a900473ffffffffffffffffffffffffffffffffffffffff169050848484848499509950995099509950505050505091939590929450565b606060018054806020026020016040519081016040528092919081815260200182805480156104c657602002820191906000526020600020906000905b82829054906101000a900467ffffffffffffffff1667ffffffffffffffff16815260200190600801906020826007010492830192600103820291508084116104815790505b5050505050905090565b816000808567ffffffffffffffff1667ffffffffffffffff16815260200190815260200160002060000190816105069190610d8f565b50806000808567ffffffffffffffff1667ffffffffffffffff168152602001908152602001600020600101908161053d9190610d8f565b5060018390806001815401808255809150506001900390600052602060002090600491828204019190066008029091909190916101000a81548167ffffffffffffffff021916908367ffffffffffffffff160217905550505050565b6000339050806000808467ffffffffffffffff1667ffffffffffffffff16815260200190815260200160002060020160016101000a81548173ffffffffffffffffffffffffffffffffffffffff021916908373ffffffffffffffffffffffffffffffffffffffff16021790555060026000808467ffffffffffffffff1667ffffffffffffffff16815260200190815260200160002060020160006101000a81548160ff021916908360ff1602179055505050565b6000339050806000808467ffffffffffffffff1667ffffffffffffffff16815260200190815260200160002060030160006101000a81548173ffffffffffffffffffffffffffffffffffffffff021916908373ffffffffffffffffffffffffffffffffffffffff16021790555060096000808467ffffffffffffffff1667ffffffffffffffff16815260200190815260200160002060020160006101000a81548160ff021916908360ff1602179055505050565b6000604051905090565b600080fd5b600080fd5b600067ffffffffffffffff82169050919050565b61073281610715565b811461073d57600080fd5b50565b60008135905061074f81610729565b92915050565b60006020828403121561076b5761076a61070b565b5b600061077984828501610740565b91505092915050565b600081519050919050565b600082825260208201905092915050565b60005b838110156107bc5780820151818401526020810190506107a1565b838111156107cb576000848401525b50505050565b6000601f19601f8301169050919050565b60006107ed82610782565b6107f7818561078d565b935061080781856020860161079e565b610810816107d1565b840191505092915050565b600060ff82169050919050565b6108318161081b565b82525050565b600073ffffffffffffffffffffffffffffffffffffffff82169050919050565b600061086282610837565b9050919050565b61087281610857565b82525050565b600060a082019050818103600083015261089281886107e2565b905081810360208301526108a681876107e2565b90506108b56040830186610828565b6108c26060830185610869565b6108cf6080830184610869565b9695505050505050565b600081519050919050565b600082825260208201905092915050565b6000819050602082019050919050565b61090e81610715565b82525050565b60006109208383610905565b60208301905092915050565b6000602082019050919050565b6000610944826108d9565b61094e81856108e4565b9350610959836108f5565b8060005b8381101561098a5781516109718882610914565b975061097c8361092c565b92505060018101905061095d565b5085935050505092915050565b600060208201905081810360008301526109b18184610939565b905092915050565b600080fd5b600080fd5b7f4e487b7100000000000000000000000000000000000000000000000000000000600052604160045260246000fd5b6109fb826107d1565b810181811067ffffffffffffffff82111715610a1a57610a196109c3565b5b80604052505050565b6000610a2d610701565b9050610a3982826109f2565b919050565b600067ffffffffffffffff821115610a5957610a586109c3565b5b610a62826107d1565b9050602081019050919050565b82818337600083830152505050565b6000610a91610a8c84610a3e565b610a23565b905082815260208101848484011115610aad57610aac6109be565b5b610ab8848285610a6f565b509392505050565b600082601f830112610ad557610ad46109b9565b5b8135610ae5848260208601610a7e565b91505092915050565b600080600060608486031215610b0757610b0661070b565b5b6000610b1586828701610740565b935050602084013567ffffffffffffffff811115610b3657610b35610710565b5b610b4286828701610ac0565b925050604084013567ffffffffffffffff811115610b6357610b62610710565b5b610b6f86828701610ac0565b9150509250925092565b7f4e487b7100000000000000000000000000000000000000000000000000000000600052602260045260246000fd5b60006002820490506001821680610bc057607f821691505b602082108103610bd357610bd2610b79565b5b50919050565b60008190508160005260206000209050919050565b60006020601f8301049050919050565b600082821b905092915050565b600060088302610c3b7fffffffffffffffffffffffffffffffffffffffffffffffffffffffffffffffff82610bfe565b610c458683610bfe565b95508019841693508086168417925050509392505050565b6000819050919050565b6000819050919050565b6000610c8c610c87610c8284610c5d565b610c67565b610c5d565b9050919050565b6000819050919050565b610ca683610c71565b610cba610cb282610c93565b848454610c0b565b825550505050565b600090565b610ccf610cc2565b610cda818484610c9d565b505050565b5b81811015610cfe57610cf3600082610cc7565b600181019050610ce0565b5050565b601f821115610d4357610d1481610bd9565b610d1d84610bee565b81016020851015610d2c578190505b610d40610d3885610bee565b830182610cdf565b50505b505050565b600082821c905092915050565b6000610d6660001984600802610d48565b1980831691505092915050565b6000610d7f8383610d55565b9150826002028217905092915050565b610d9882610782565b67ffffffffffffffff811115610db157610db06109c3565b5b610dbb8254610ba8565b610dc6828285610d02565b600060209050601f831160018114610df95760008415610de7578287015190505b610df18582610d73565b865550610e59565b601f198416610e0786610bd9565b60005b82811015610e2f57848901518255600182019150602085019450602081019050610e0a565b86831015610e4c5784890151610e48601f891682610d55565b8355505b6001600288020188555050505b50505050505056fea264697066735822122073d89c4f4365e8ab4f22c0a81d6ea44a6bbedb828aeba7d996754b933aa0871064736f6c634300080f0033",
  "immutableReferences": {},
  "source": "// SPDX-License-Identifier: MIT\r\npragma solidity >= 0.4.22 < 0.9.0;\r\n\r\ncontract subcontract {\r\n    //   \r\n    struct contract_info{\r\n        string title;\r\n        string contents;\r\n        uint8 state;     // 0   , \r\n                        //  1 :   , \r\n                        //  2 :   , \r\n                        //  9 :  \r\n        address a_company;\r\n        address b_company;\r\n    }\r\n\r\n    // mapping data \r\n    mapping (uint64 => contract_info) internal sub_contract;\r\n\r\n    //     \r\n    uint64[] internal contracts;\r\n\r\n    function add_contract(\r\n        uint64 _no,\r\n        string memory _title, \r\n        string memory _contents\r\n        ) public {\r\n            // mapping _no     _title, _contracs  \r\n            sub_contract[_no].title = _title;\r\n            sub_contract[_no].contents = _contents;\r\n            //     \r\n            contracts.push(_no);\r\n        }\r\n\r\n    function sign_contract(uint64 _no) public {\r\n        //    \r\n        address signer = msg.sender;\r\n\r\n        //    b_company \r\n        sub_contract[_no].b_company = signer;\r\n        //    state 1 \r\n        sub_contract[_no].state = 1;\r\n    }\r\n\r\n    function confirm_contract(uint64 _no) public{\r\n        //    \r\n        address confirmer = msg.sender;\r\n\r\n        //    a_company \r\n        sub_contract[_no].a_company = confirmer;\r\n        //       state 2\r\n        sub_contract[_no].state = 2;\r\n    }\r\n\r\n    function refuse_contract(uint64 _no) public {\r\n        address refuser = msg.sender;\r\n\r\n        sub_contract[_no].b_company = refuser;\r\n        sub_contract[_no].state = 9;\r\n    }\r\n\r\n    // contract    \r\n    function view_contract(uint64 _no) public view returns (\r\n        string memory, string memory, uint8, address, address\r\n    ){\r\n        // mapping        \r\n        string memory _title = sub_contract[_no].title;\r\n        string memory _contents = sub_contract[_no].contents;\r\n        uint8 _state = sub_contract[_no].state;\r\n        address _a = sub_contract[_no].a_company;\r\n        address _b = sub_contract[_no].b_company;\r\n        //    . \r\n        return (_title, _contents, _state, _a, _b);\r\n    }\r\n\r\n    //    \r\n    function view_contracts() public view returns(uint64[] memory){\r\n        return (contracts);\r\n    }\r\n}",
  "sourcePath": "C:\\Users\\user\\Documents\\GitHub\\masan_block\\subcontract_server\\contracts\\sub_contract.sol",
  "compiler": {
    "name": "solc",
    "version": "0.8.15+commit.e14f2714.Emscripten.clang"
  },
  "schemaVersion": "3.4.14",
  "updatedAt": "2023-06-03T06:55:46.049Z",
  "networkType": "ethereum",
  "devdoc": {
    "kind": "dev",
    "methods": {},
    "version": 1
  },
  "userdoc": {
    "kind": "user",
    "methods": {},
    "version": 1
  }
}