{
  "contractName": "survey",
  "abi": [
    {
      "inputs": [],
      "stateMutability": "nonpayable",
      "type": "constructor"
    },
    {
      "inputs": [
        {
          "internalType": "string",
          "name": "_id",
          "type": "string"
        },
        {
          "internalType": "string",
          "name": "_name",
          "type": "string"
        },
        {
          "internalType": "uint8",
          "name": "_gender",
          "type": "uint8"
        },
        {
          "internalType": "uint8",
          "name": "_age",
          "type": "uint8"
        },
        {
          "internalType": "string",
          "name": "_coffee",
          "type": "string"
        }
      ],
      "name": "add_survey",
      "outputs": [],
      "stateMutability": "nonpayable",
      "type": "function"
    },
    {
      "inputs": [
        {
          "internalType": "string",
          "name": "_id",
          "type": "string"
        }
      ],
      "name": "check_survey",
      "outputs": [
        {
          "internalType": "bool",
          "name": "",
          "type": "bool"
        }
      ],
      "stateMutability": "view",
      "type": "function",
      "constant": true
    },
    {
      "inputs": [
        {
          "internalType": "string",
          "name": "_id",
          "type": "string"
        }
      ],
      "name": "view_survey",
      "outputs": [
        {
          "internalType": "string",
          "name": "",
          "type": "string"
        },
        {
          "internalType": "string",
          "name": "",
          "type": "string"
        },
        {
          "internalType": "uint8",
          "name": "",
          "type": "uint8"
        },
        {
          "internalType": "uint8",
          "name": "",
          "type": "uint8"
        }
      ],
      "stateMutability": "view",
      "type": "function",
      "constant": true
    },
    {
      "inputs": [],
      "name": "view_list",
      "outputs": [
        {
          "internalType": "string[]",
          "name": "",
          "type": "string[]"
        },
        {
          "internalType": "uint256",
          "name": "",
          "type": "uint256"
        }
      ],
      "stateMutability": "view",
      "type": "function",
      "constant": true
    }
  ],
  "bytecode": "0x608060405234801561001057600080fd5b506000808190555033600160006101000a81548173ffffffffffffffffffffffffffffffffffffffff021916908373ffffffffffffffffffffffffffffffffffffffff160217905550610f32806100686000396000f3fe608060405234801561001057600080fd5b506004361061004c5760003560e01c80636ddfdee914610051578063883944f714610070578063a8decc31146100a0578063da90a6e4146100d3575b600080fd5b6100596100ef565b604051610067929190610716565b60405180910390f35b61008a6004803603810190610085919061088f565b6101d3565b60405161009791906108f3565b60405180910390f35b6100ba60048036038101906100b5919061088f565b610220565b6040516100ca9493929190610974565b60405180910390f35b6100ed60048036038101906100e891906109f3565b6103ed565b005b60606000600360005481805480602002602001604051908101604052809291908181526020016000905b828210156101c557838290600052602060002001805461013890610af1565b80601f016020809104026020016040519081016040528092919081815260200182805461016490610af1565b80156101b15780601f10610186576101008083540402835291602001916101b1565b820191906000526020600020905b81548152906001019060200180831161019457829003601f168201915b505050505081526020019060010190610119565b505050509150915091509091565b6000806002836040516101e69190610b5e565b908152602001604051809103902060010160009054906101000a900460ff1660ff1603610216576001905061021b565b600090505b919050565b6060806000806002856040516102369190610b5e565b90815260200160405180910390206000016002866040516102579190610b5e565b90815260200160405180910390206002016002876040516102789190610b5e565b908152602001604051809103902060010160009054906101000a900460ff166002886040516102a79190610b5e565b908152602001604051809103902060010160019054906101000a900460ff168380546102d290610af1565b80601f01602080910402602001604051908101604052809291908181526020018280546102fe90610af1565b801561034b5780601f106103205761010080835404028352916020019161034b565b820191906000526020600020905b81548152906001019060200180831161032e57829003601f168201915b5050505050935082805461035e90610af1565b80601f016020809104026020016040519081016040528092919081815260200182805461038a90610af1565b80156103d75780601f106103ac576101008083540402835291602001916103d7565b820191906000526020600020905b8154815290600101906020018083116103ba57829003601f168201915b5050505050925093509350935093509193509193565b600160009054906101000a900473ffffffffffffffffffffffffffffffffffffffff1673ffffffffffffffffffffffffffffffffffffffff163373ffffffffffffffffffffffffffffffffffffffff161461047d576040517f08c379a000000000000000000000000000000000000000000000000000000000815260040161047490610be7565b60405180910390fd5b8360028660405161048e9190610b5e565b908152602001604051809103902060000190816104ab9190610db3565b50826002866040516104bd9190610b5e565b908152602001604051809103902060010160006101000a81548160ff021916908360ff160217905550816002866040516104f79190610b5e565b908152602001604051809103902060010160016101000a81548160ff021916908360ff160217905550806002866040516105319190610b5e565b9081526020016040518091039020600201908161054e9190610db3565b506003859080600181540180825580915050600190039060005260206000200160009091909190915090816105839190610db3565b5060008081548092919061059690610eb4565b91905055505050505050565b600081519050919050565b600082825260208201905092915050565b6000819050602082019050919050565b600081519050919050565b600082825260208201905092915050565b60005b838110156106085780820151818401526020810190506105ed565b83811115610617576000848401525b50505050565b6000601f19601f8301169050919050565b6000610639826105ce565b61064381856105d9565b93506106538185602086016105ea565b61065c8161061d565b840191505092915050565b6000610673838361062e565b905092915050565b6000602082019050919050565b6000610693826105a2565b61069d81856105ad565b9350836020820285016106af856105be565b8060005b858110156106eb57848403895281516106cc8582610667565b94506106d78361067b565b925060208a019950506001810190506106b3565b50829750879550505050505092915050565b6000819050919050565b610710816106fd565b82525050565b600060408201905081810360008301526107308185610688565b905061073f6020830184610707565b9392505050565b6000604051905090565b600080fd5b600080fd5b600080fd5b600080fd5b7f4e487b7100000000000000000000000000000000000000000000000000000000600052604160045260246000fd5b61079c8261061d565b810181811067ffffffffffffffff821117156107bb576107ba610764565b5b80604052505050565b60006107ce610746565b90506107da8282610793565b919050565b600067ffffffffffffffff8211156107fa576107f9610764565b5b6108038261061d565b9050602081019050919050565b82818337600083830152505050565b600061083261082d846107df565b6107c4565b90508281526020810184848401111561084e5761084d61075f565b5b610859848285610810565b509392505050565b600082601f8301126108765761087561075a565b5b813561088684826020860161081f565b91505092915050565b6000602082840312156108a5576108a4610750565b5b600082013567ffffffffffffffff8111156108c3576108c2610755565b5b6108cf84828501610861565b91505092915050565b60008115159050919050565b6108ed816108d8565b82525050565b600060208201905061090860008301846108e4565b92915050565b600082825260208201905092915050565b600061092a826105ce565b610934818561090e565b93506109448185602086016105ea565b61094d8161061d565b840191505092915050565b600060ff82169050919050565b61096e81610958565b82525050565b6000608082019050818103600083015261098e818761091f565b905081810360208301526109a2818661091f565b90506109b16040830185610965565b6109be6060830184610965565b95945050505050565b6109d081610958565b81146109db57600080fd5b50565b6000813590506109ed816109c7565b92915050565b600080600080600060a08688031215610a0f57610a0e610750565b5b600086013567ffffffffffffffff811115610a2d57610a2c610755565b5b610a3988828901610861565b955050602086013567ffffffffffffffff811115610a5a57610a59610755565b5b610a6688828901610861565b9450506040610a77888289016109de565b9350506060610a88888289016109de565b925050608086013567ffffffffffffffff811115610aa957610aa8610755565b5b610ab588828901610861565b9150509295509295909350565b7f4e487b7100000000000000000000000000000000000000000000000000000000600052602260045260246000fd5b60006002820490506001821680610b0957607f821691505b602082108103610b1c57610b1b610ac2565b5b50919050565b600081905092915050565b6000610b38826105ce565b610b428185610b22565b9350610b528185602086016105ea565b80840191505092915050565b6000610b6a8284610b2d565b915081905092915050565b7f4f6e6c79206f776e65722063616e2063616c6c20746869732066756e6374696f60008201527f6e00000000000000000000000000000000000000000000000000000000000000602082015250565b6000610bd160218361090e565b9150610bdc82610b75565b604082019050919050565b60006020820190508181036000830152610c0081610bc4565b9050919050565b60008190508160005260206000209050919050565b60006020601f8301049050919050565b600082821b905092915050565b600060088302610c697fffffffffffffffffffffffffffffffffffffffffffffffffffffffffffffffff82610c2c565b610c738683610c2c565b95508019841693508086168417925050509392505050565b6000819050919050565b6000610cb0610cab610ca6846106fd565b610c8b565b6106fd565b9050919050565b6000819050919050565b610cca83610c95565b610cde610cd682610cb7565b848454610c39565b825550505050565b600090565b610cf3610ce6565b610cfe818484610cc1565b505050565b5b81811015610d2257610d17600082610ceb565b600181019050610d04565b5050565b601f821115610d6757610d3881610c07565b610d4184610c1c565b81016020851015610d50578190505b610d64610d5c85610c1c565b830182610d03565b50505b505050565b600082821c905092915050565b6000610d8a60001984600802610d6c565b1980831691505092915050565b6000610da38383610d79565b9150826002028217905092915050565b610dbc826105ce565b67ffffffffffffffff811115610dd557610dd4610764565b5b610ddf8254610af1565b610dea828285610d26565b600060209050601f831160018114610e1d5760008415610e0b578287015190505b610e158582610d97565b865550610e7d565b601f198416610e2b86610c07565b60005b82811015610e5357848901518255600182019150602085019450602081019050610e2e565b86831015610e705784890151610e6c601f891682610d79565b8355505b6001600288020188555050505b505050505050565b7f4e487b7100000000000000000000000000000000000000000000000000000000600052601160045260246000fd5b6000610ebf826106fd565b91507fffffffffffffffffffffffffffffffffffffffffffffffffffffffffffffffff8203610ef157610ef0610e85565b5b60018201905091905056fea26469706673582212206d348249a02cb5d4c84e0f935979b38ecc18bb1b47a0adf2d828aecdfd795a0c64736f6c634300080f0033",
  "immutableReferences": {},
  "source": "// SPDX-License-Identifier: MIT\r\npragma solidity = 0.8.15;\r\n\r\ncontract survey{\r\n\r\n    uint internal count;\r\n    address internal owner;\r\n    //  \r\n    // deploy    \r\n    constructor() {\r\n        count = 0;\r\n        owner = msg.sender;\r\n    }\r\n\r\n    // modifier \r\n    //      \r\n    //    \r\n    //    \r\n    modifier onlyOwner {\r\n        require(msg.sender == owner, 'Only owner can call this function');\r\n        // _  modifier    \r\n        _;\r\n    }\r\n    modifier increament_count {\r\n        _;\r\n        count++;\r\n    }\r\n\r\n    //  \r\n    // , , ,   \r\n    // mapping      \r\n    // mapping key    ID \r\n\r\n    //  \r\n    struct survey_info{\r\n        string name;\r\n        uint8 gender; //  1 , 2 , 9 \r\n        uint8 age;\r\n        string coffee;\r\n    }\r\n\r\n    // mapping  \r\n    mapping (string => survey_info) internal surveys;\r\n\r\n    //      \r\n    //   \r\n    string[] internal survey_list;\r\n\r\n\r\n    //    \r\n    function add_survey(\r\n        string memory _id, \r\n        string memory _name, \r\n        uint8 _gender, \r\n        uint8 _age, \r\n        string memory _coffee\r\n    ) public onlyOwner increament_count {\r\n        //   mapping   \r\n        surveys[_id].name = _name;\r\n        surveys[_id].gender = _gender;\r\n        surveys[_id].age = _age;\r\n        surveys[_id].coffee = _coffee;\r\n        //     \r\n        survey_list.push(_id);\r\n    }\r\n\r\n    //      \r\n    function check_survey(\r\n        string memory _id\r\n    ) public view returns(bool){\r\n        //     ?\r\n        //  id   mapping data \r\n        //      0  \r\n        if (surveys[_id].gender == 0){\r\n            return true;\r\n        }else{\r\n            return false;\r\n        }\r\n    }\r\n\r\n    //    \r\n    function view_survey(\r\n        string memory _id\r\n    ) public view returns (\r\n        string memory, \r\n        string memory,\r\n        uint8, \r\n        uint8\r\n    ){\r\n        return (\r\n            surveys[_id].name, \r\n            surveys[_id].coffee,\r\n            surveys[_id].gender, \r\n            surveys[_id].age\r\n        );\r\n    }\r\n\r\n    function view_list() public view returns(\r\n        string[] memory, \r\n        uint\r\n    ){\r\n        return (\r\n            survey_list, \r\n            count\r\n        );\r\n    }\r\n\r\n}",
  "sourcePath": "C:\\Users\\moons\\Documents\\GitHub\\masan_block\\survey_server\\contracts\\survey.sol",
  "compiler": {
    "name": "solc",
    "version": "0.8.15+commit.e14f2714.Emscripten.clang"
  },
  "schemaVersion": "3.4.14",
  "updatedAt": "2023-06-14T10:00:06.743Z",
  "networkType": "ethereum",
  "devdoc": {
    "kind": "dev",
    "methods": {},
    "version": 1
  },
  "userdoc": {
    "kind": "user",
    "methods": {},
    "version": 1
  }
}