{
  "contractName": "survey",
  "abi": [
    {
      "inputs": [],
      "stateMutability": "nonpayable",
      "type": "constructor"
    },
    {
      "inputs": [
        {
          "internalType": "string",
          "name": "_id",
          "type": "string"
        },
        {
          "internalType": "string",
          "name": "_name",
          "type": "string"
        },
        {
          "internalType": "uint8",
          "name": "_gender",
          "type": "uint8"
        },
        {
          "internalType": "uint8",
          "name": "_age",
          "type": "uint8"
        },
        {
          "internalType": "string",
          "name": "_coffee",
          "type": "string"
        }
      ],
      "name": "add_survey",
      "outputs": [],
      "stateMutability": "nonpayable",
      "type": "function"
    }
  ],
  "bytecode": "0x608060405234801561001057600080fd5b506000808190555033600160006101000a81548173ffffffffffffffffffffffffffffffffffffffff021916908373ffffffffffffffffffffffffffffffffffffffff16021790555061092c806100686000396000f3fe608060405234801561001057600080fd5b506004361061002b5760003560e01c8063da90a6e414610030575b600080fd5b61004a60048036038101906100459190610394565b61004c565b005b600160009054906101000a900473ffffffffffffffffffffffffffffffffffffffff1673ffffffffffffffffffffffffffffffffffffffff163373ffffffffffffffffffffffffffffffffffffffff16146100dc576040517f08c379a00000000000000000000000000000000000000000000000000000000081526004016100d3906104e6565b60405180910390fd5b836002866040516100ed9190610580565b9081526020016040518091039020600001908161010a91906107ad565b508260028660405161011c9190610580565b908152602001604051809103902060010160006101000a81548160ff021916908360ff160217905550816002866040516101569190610580565b908152602001604051809103902060010160016101000a81548160ff021916908360ff160217905550806002866040516101909190610580565b908152602001604051809103902060020190816101ad91906107ad565b506003859080600181540180825580915050600190039060005260206000200160009091909190915090816101e291906107ad565b506000808154809291906101f5906108ae565b91905055505050505050565b6000604051905090565b600080fd5b600080fd5b600080fd5b600080fd5b6000601f19601f8301169050919050565b7f4e487b7100000000000000000000000000000000000000000000000000000000600052604160045260246000fd5b6102688261021f565b810181811067ffffffffffffffff8211171561028757610286610230565b5b80604052505050565b600061029a610201565b90506102a6828261025f565b919050565b600067ffffffffffffffff8211156102c6576102c5610230565b5b6102cf8261021f565b9050602081019050919050565b82818337600083830152505050565b60006102fe6102f9846102ab565b610290565b90508281526020810184848401111561031a5761031961021a565b5b6103258482856102dc565b509392505050565b600082601f83011261034257610341610215565b5b81356103528482602086016102eb565b91505092915050565b600060ff82169050919050565b6103718161035b565b811461037c57600080fd5b50565b60008135905061038e81610368565b92915050565b600080600080600060a086880312156103b0576103af61020b565b5b600086013567ffffffffffffffff8111156103ce576103cd610210565b5b6103da8882890161032d565b955050602086013567ffffffffffffffff8111156103fb576103fa610210565b5b6104078882890161032d565b94505060406104188882890161037f565b93505060606104298882890161037f565b925050608086013567ffffffffffffffff81111561044a57610449610210565b5b6104568882890161032d565b9150509295509295909350565b600082825260208201905092915050565b7f4f6e6c79206f776e65722063616e2063616c6c20746869732066756e6374696f60008201527f6e00000000000000000000000000000000000000000000000000000000000000602082015250565b60006104d0602183610463565b91506104db82610474565b604082019050919050565b600060208201905081810360008301526104ff816104c3565b9050919050565b600081519050919050565b600081905092915050565b60005b8381101561053a57808201518184015260208101905061051f565b83811115610549576000848401525b50505050565b600061055a82610506565b6105648185610511565b935061057481856020860161051c565b80840191505092915050565b600061058c828461054f565b915081905092915050565b7f4e487b7100000000000000000000000000000000000000000000000000000000600052602260045260246000fd5b600060028204905060018216806105de57607f821691505b6020821081036105f1576105f0610597565b5b50919050565b60008190508160005260206000209050919050565b60006020601f8301049050919050565b600082821b905092915050565b6000600883026106597fffffffffffffffffffffffffffffffffffffffffffffffffffffffffffffffff8261061c565b610663868361061c565b95508019841693508086168417925050509392505050565b6000819050919050565b6000819050919050565b60006106aa6106a56106a08461067b565b610685565b61067b565b9050919050565b6000819050919050565b6106c48361068f565b6106d86106d0826106b1565b848454610629565b825550505050565b600090565b6106ed6106e0565b6106f88184846106bb565b505050565b5b8181101561071c576107116000826106e5565b6001810190506106fe565b5050565b601f82111561076157610732816105f7565b61073b8461060c565b8101602085101561074a578190505b61075e6107568561060c565b8301826106fd565b50505b505050565b600082821c905092915050565b600061078460001984600802610766565b1980831691505092915050565b600061079d8383610773565b9150826002028217905092915050565b6107b682610506565b67ffffffffffffffff8111156107cf576107ce610230565b5b6107d982546105c6565b6107e4828285610720565b600060209050601f8311600181146108175760008415610805578287015190505b61080f8582610791565b865550610877565b601f198416610825866105f7565b60005b8281101561084d57848901518255600182019150602085019450602081019050610828565b8683101561086a5784890151610866601f891682610773565b8355505b6001600288020188555050505b505050505050565b7f4e487b7100000000000000000000000000000000000000000000000000000000600052601160045260246000fd5b60006108b98261067b565b91507fffffffffffffffffffffffffffffffffffffffffffffffffffffffffffffffff82036108eb576108ea61087f565b5b60018201905091905056fea264697066735822122013c66ad2ed9bed17c5def153e2b29d11c1b7a6afb6093409382c64afc9db811264736f6c634300080f0033",
  "immutableReferences": {},
  "source": "// SPDX-License-Identifier: MIT\r\npragma solidity = 0.8.15;\r\n\r\ncontract survey{\r\n\r\n    uint internal count;\r\n    address internal owner;\r\n    //  \r\n    // deploy    \r\n    constructor() {\r\n        count = 0;\r\n        owner = msg.sender;\r\n    }\r\n\r\n    // modifier \r\n    //      \r\n    //    \r\n    //    \r\n    modifier onlyOwner {\r\n        require(msg.sender == owner, 'Only owner can call this function');\r\n        // _  modifier    \r\n        _;\r\n    }\r\n    modifier increament_count {\r\n        _;\r\n        count++;\r\n    }\r\n\r\n    //  \r\n    // , , ,   \r\n    // mapping      \r\n    // mapping key    ID \r\n\r\n    //  \r\n    struct survey_info{\r\n        string name;\r\n        uint8 gender; //  0 , 1 \r\n        uint8 age;\r\n        string coffee;\r\n    }\r\n\r\n    // mapping  \r\n    mapping (string => survey_info) internal surveys;\r\n\r\n    //      \r\n    //   \r\n    string[] internal survey_list;\r\n\r\n\r\n    //    \r\n    function add_survey(\r\n        string memory _id, \r\n        string memory _name, \r\n        uint8 _gender, \r\n        uint8 _age, \r\n        string memory _coffee\r\n    ) public onlyOwner increament_count {\r\n        //   mapping   \r\n        surveys[_id].name = _name;\r\n        surveys[_id].gender = _gender;\r\n        surveys[_id].age = _age;\r\n        surveys[_id].coffee = _coffee;\r\n        //     \r\n        survey_list.push(_id);\r\n    }\r\n\r\n}",
  "sourcePath": "C:\\Users\\moons\\Documents\\GitHub\\masan_block\\survey_server\\contracts\\survey.sol",
  "compiler": {
    "name": "solc",
    "version": "0.8.15+commit.e14f2714.Emscripten.clang"
  },
  "schemaVersion": "3.4.14",
  "updatedAt": "2023-06-13T12:52:33.482Z",
  "devdoc": {
    "kind": "dev",
    "methods": {},
    "version": 1
  },
  "userdoc": {
    "kind": "user",
    "methods": {},
    "version": 1
  }
}