{
  "contractName": "userinfo",
  "abi": [
    {
      "inputs": [
        {
          "internalType": "string",
          "name": "_id",
          "type": "string"
        },
        {
          "internalType": "string",
          "name": "_pass",
          "type": "string"
        },
        {
          "internalType": "string",
          "name": "_name",
          "type": "string"
        },
        {
          "internalType": "string",
          "name": "_phone",
          "type": "string"
        },
        {
          "internalType": "string",
          "name": "_location",
          "type": "string"
        },
        {
          "internalType": "address",
          "name": "_walletAddress",
          "type": "address"
        }
      ],
      "name": "add_user",
      "outputs": [],
      "stateMutability": "nonpayable",
      "type": "function"
    },
    {
      "inputs": [
        {
          "internalType": "string",
          "name": "_id",
          "type": "string"
        }
      ],
      "name": "view_info",
      "outputs": [
        {
          "internalType": "string",
          "name": "",
          "type": "string"
        },
        {
          "internalType": "string",
          "name": "",
          "type": "string"
        },
        {
          "internalType": "string",
          "name": "",
          "type": "string"
        },
        {
          "internalType": "string",
          "name": "",
          "type": "string"
        },
        {
          "internalType": "string",
          "name": "",
          "type": "string"
        },
        {
          "internalType": "address",
          "name": "",
          "type": "address"
        }
      ],
      "stateMutability": "view",
      "type": "function",
      "constant": true
    }
  ],
  "bytecode": "0x608060405234801561001057600080fd5b50610d4d806100206000396000f3fe608060405234801561001057600080fd5b50600436106100365760003560e01c80631716b0111461003b578063b1151cb414610070575b600080fd5b6100556004803603810190610050919061070a565b61008c565b60405161006796959493929190610813565b60405180910390f35b61008a600480360381019061008591906108c3565b61045d565b005b60608060608060606000806000886040516100a79190610a18565b908152602001604051809103902060000180546100c390610a5e565b80601f01602080910402602001604051908101604052809291908181526020018280546100ef90610a5e565b801561013c5780601f106101115761010080835404028352916020019161013c565b820191906000526020600020905b81548152906001019060200180831161011f57829003601f168201915b50505050509050600080896040516101549190610a18565b9081526020016040518091039020600101805461017090610a5e565b80601f016020809104026020016040519081016040528092919081815260200182805461019c90610a5e565b80156101e95780601f106101be576101008083540402835291602001916101e9565b820191906000526020600020905b8154815290600101906020018083116101cc57829003601f168201915b505050505090506000808a6040516102019190610a18565b9081526020016040518091039020600201805461021d90610a5e565b80601f016020809104026020016040519081016040528092919081815260200182805461024990610a5e565b80156102965780601f1061026b57610100808354040283529160200191610296565b820191906000526020600020905b81548152906001019060200180831161027957829003601f168201915b505050505090506000808b6040516102ae9190610a18565b908152602001604051809103902060030180546102ca90610a5e565b80601f01602080910402602001604051908101604052809291908181526020018280546102f690610a5e565b80156103435780601f1061031857610100808354040283529160200191610343565b820191906000526020600020905b81548152906001019060200180831161032657829003601f168201915b505050505090506000808c60405161035b9190610a18565b9081526020016040518091039020600401805461037790610a5e565b80601f01602080910402602001604051908101604052809291908181526020018280546103a390610a5e565b80156103f05780601f106103c5576101008083540402835291602001916103f0565b820191906000526020600020905b8154815290600101906020018083116103d357829003601f168201915b505050505090506000808d6040516104089190610a18565b908152602001604051809103902060050160009054906101000a900473ffffffffffffffffffffffffffffffffffffffff1690508585858585859b509b509b509b509b509b5050505050505091939550919395565b8560008760405161046e9190610a18565b9081526020016040518091039020600001908161048b9190610c45565b508460008760405161049d9190610a18565b908152602001604051809103902060010190816104ba9190610c45565b50836000876040516104cc9190610a18565b908152602001604051809103902060020190816104e99190610c45565b50826000876040516104fb9190610a18565b908152602001604051809103902060030190816105189190610c45565b508160008760405161052a9190610a18565b908152602001604051809103902060040190816105479190610c45565b50806000876040516105599190610a18565b908152602001604051809103902060050160006101000a81548173ffffffffffffffffffffffffffffffffffffffff021916908373ffffffffffffffffffffffffffffffffffffffff160217905550505050505050565b6000604051905090565b600080fd5b600080fd5b600080fd5b600080fd5b6000601f19601f8301169050919050565b7f4e487b7100000000000000000000000000000000000000000000000000000000600052604160045260246000fd5b610617826105ce565b810181811067ffffffffffffffff82111715610636576106356105df565b5b80604052505050565b60006106496105b0565b9050610655828261060e565b919050565b600067ffffffffffffffff821115610675576106746105df565b5b61067e826105ce565b9050602081019050919050565b82818337600083830152505050565b60006106ad6106a88461065a565b61063f565b9050828152602081018484840111156106c9576106c86105c9565b5b6106d484828561068b565b509392505050565b600082601f8301126106f1576106f06105c4565b5b813561070184826020860161069a565b91505092915050565b6000602082840312156107205761071f6105ba565b5b600082013567ffffffffffffffff81111561073e5761073d6105bf565b5b61074a848285016106dc565b91505092915050565b600081519050919050565b600082825260208201905092915050565b60005b8381101561078d578082015181840152602081019050610772565b60008484015250505050565b60006107a482610753565b6107ae818561075e565b93506107be81856020860161076f565b6107c7816105ce565b840191505092915050565b600073ffffffffffffffffffffffffffffffffffffffff82169050919050565b60006107fd826107d2565b9050919050565b61080d816107f2565b82525050565b600060c082019050818103600083015261082d8189610799565b905081810360208301526108418188610799565b905081810360408301526108558187610799565b905081810360608301526108698186610799565b9050818103608083015261087d8185610799565b905061088c60a0830184610804565b979650505050505050565b6108a0816107f2565b81146108ab57600080fd5b50565b6000813590506108bd81610897565b92915050565b60008060008060008060c087890312156108e0576108df6105ba565b5b600087013567ffffffffffffffff8111156108fe576108fd6105bf565b5b61090a89828a016106dc565b965050602087013567ffffffffffffffff81111561092b5761092a6105bf565b5b61093789828a016106dc565b955050604087013567ffffffffffffffff811115610958576109576105bf565b5b61096489828a016106dc565b945050606087013567ffffffffffffffff811115610985576109846105bf565b5b61099189828a016106dc565b935050608087013567ffffffffffffffff8111156109b2576109b16105bf565b5b6109be89828a016106dc565b92505060a06109cf89828a016108ae565b9150509295509295509295565b600081905092915050565b60006109f282610753565b6109fc81856109dc565b9350610a0c81856020860161076f565b80840191505092915050565b6000610a2482846109e7565b915081905092915050565b7f4e487b7100000000000000000000000000000000000000000000000000000000600052602260045260246000fd5b60006002820490506001821680610a7657607f821691505b602082108103610a8957610a88610a2f565b5b50919050565b60008190508160005260206000209050919050565b60006020601f8301049050919050565b600082821b905092915050565b600060088302610af17fffffffffffffffffffffffffffffffffffffffffffffffffffffffffffffffff82610ab4565b610afb8683610ab4565b95508019841693508086168417925050509392505050565b6000819050919050565b6000819050919050565b6000610b42610b3d610b3884610b13565b610b1d565b610b13565b9050919050565b6000819050919050565b610b5c83610b27565b610b70610b6882610b49565b848454610ac1565b825550505050565b600090565b610b85610b78565b610b90818484610b53565b505050565b5b81811015610bb457610ba9600082610b7d565b600181019050610b96565b5050565b601f821115610bf957610bca81610a8f565b610bd384610aa4565b81016020851015610be2578190505b610bf6610bee85610aa4565b830182610b95565b50505b505050565b600082821c905092915050565b6000610c1c60001984600802610bfe565b1980831691505092915050565b6000610c358383610c0b565b9150826002028217905092915050565b610c4e82610753565b67ffffffffffffffff811115610c6757610c666105df565b5b610c718254610a5e565b610c7c828285610bb8565b600060209050601f831160018114610caf5760008415610c9d578287015190505b610ca78582610c29565b865550610d0f565b601f198416610cbd86610a8f565b60005b82811015610ce557848901518255600182019150602085019450602081019050610cc0565b86831015610d025784890151610cfe601f891682610c0b565b8355505b6001600288020188555050505b50505050505056fea2646970667358221220a793338e88a1b7059c4b31519512a523cafdc68b22637649c4ee4cb1159dcc4064736f6c63430008130033",
  "immutableReferences": {},
  "source": "// SPDX-License-Identifier: MIT\r\npragma solidity >=0.4.0 < 0.9.0;\r\n//  \r\ncontract userinfo{\r\n    //     \r\n\r\n    //      \r\n    // mysql table  \r\n    struct info{\r\n        //    \r\n        string id;\r\n        string password;\r\n        string name;\r\n        string phone;\r\n        string location;\r\n        address walletAddress;\r\n    }\r\n\r\n    mapping (string => info) internal users;\r\n\r\n    //     \r\n    function add_user(\r\n        string memory _id, \r\n        string memory _pass, \r\n        string memory _name, \r\n        string memory _phone,\r\n        string memory _location,\r\n        address _walletAddress\r\n    ) public {\r\n        //      \r\n        // state 0    . \r\n        // state 0    .\r\n \r\n        // mapping  _id    value \r\n        users[_id].id = _id;\r\n        users[_id].password = _pass;\r\n        users[_id].name = _name;\r\n        users[_id].phone = _phone;\r\n        users[_id].location = _location;\r\n        users[_id].walletAddress = _walletAddress;\r\n\r\n    }\r\n\r\n    //      \r\n    function view_info(\r\n        string memory _id\r\n    ) public view returns(\r\n        string memory, \r\n        string memory, \r\n        string memory, \r\n        string memory,\r\n        string memory,\r\n        address\r\n    ){\r\n        string memory id = users[_id].id;\r\n        string memory pass = users[_id].password;\r\n        string memory name = users[_id].name;\r\n        string memory phone = users[_id].phone;\r\n        string memory location = users[_id].location;\r\n        address walletAddress = users[_id].walletAddress;\r\n        return (id, pass, name, phone, location, walletAddress);\r\n    }\r\n\r\n\r\n\r\n}",
  "sourcePath": "C:\\Users\\moons\\Documents\\GitHub\\masan_block\\project\\contracts\\userinfo.sol",
  "compiler": {
    "name": "solc",
    "version": "0.8.19+commit.7dd6d404.Emscripten.clang"
  },
  "schemaVersion": "3.4.14",
  "updatedAt": "2023-06-24T06:09:15.731Z",
  "networkType": "ethereum",
  "devdoc": {
    "kind": "dev",
    "methods": {},
    "version": 1
  },
  "userdoc": {
    "kind": "user",
    "methods": {},
    "version": 1
  }
}