{
  "contractName": "user_info",
  "abi": [
    {
      "inputs": [
        {
          "internalType": "string",
          "name": "_id",
          "type": "string"
        },
        {
          "internalType": "string",
          "name": "_pass",
          "type": "string"
        },
        {
          "internalType": "string",
          "name": "_name",
          "type": "string"
        },
        {
          "internalType": "string",
          "name": "_phone",
          "type": "string"
        }
      ],
      "name": "add_user",
      "outputs": [],
      "stateMutability": "nonpayable",
      "type": "function"
    },
    {
      "inputs": [
        {
          "internalType": "string",
          "name": "_id",
          "type": "string"
        }
      ],
      "name": "view_info",
      "outputs": [
        {
          "internalType": "string",
          "name": "",
          "type": "string"
        },
        {
          "internalType": "string",
          "name": "",
          "type": "string"
        },
        {
          "internalType": "string",
          "name": "",
          "type": "string"
        },
        {
          "internalType": "string",
          "name": "",
          "type": "string"
        }
      ],
      "stateMutability": "view",
      "type": "function"
    }
  ],
  "bytecode": "0x608060405234801561000f575f80fd5b50610bb38061001d5f395ff3fe608060405234801561000f575f80fd5b5060043610610034575f3560e01c80631716b01114610038578063d1c37f661461006b575b5f80fd5b610052600480360381019061004d91906105ff565b610087565b60405161006294939291906106c0565b60405180910390f35b6100856004803603810190610080919061071f565b61034c565b005b6060806060805f808660405161009d919061082d565b908152602001604051809103902060010180546100b990610870565b80601f01602080910402602001604051908101604052809291908181526020018280546100e590610870565b80156101305780601f1061010757610100808354040283529160200191610130565b820191905f5260205f20905b81548152906001019060200180831161011357829003601f168201915b505050505090505f8087604051610147919061082d565b9081526020016040518091039020600201805461016390610870565b80601f016020809104026020016040519081016040528092919081815260200182805461018f90610870565b80156101da5780601f106101b1576101008083540402835291602001916101da565b820191905f5260205f20905b8154815290600101906020018083116101bd57829003601f168201915b505050505090505f80886040516101f1919061082d565b9081526020016040518091039020600301805461020d90610870565b80601f016020809104026020016040519081016040528092919081815260200182805461023990610870565b80156102845780601f1061025b57610100808354040283529160200191610284565b820191905f5260205f20905b81548152906001019060200180831161026757829003601f168201915b505050505090505f808960405161029b919061082d565b908152602001604051809103902060040180546102b790610870565b80601f01602080910402602001604051908101604052809291908181526020018280546102e390610870565b801561032e5780601f106103055761010080835404028352916020019161032e565b820191905f5260205f20905b81548152906001019060200180831161031157829003601f168201915b50505050509050838383839750975097509750505050509193509193565b5f808560405161035c919061082d565b90815260200160405180910390205f015f9054906101000a900460ff1660ff16146103bc576040517f08c379a00000000000000000000000000000000000000000000000000000000081526004016103b3906108ea565b60405180910390fd5b835f856040516103cc919061082d565b908152602001604051809103902060010190816103e99190610aae565b50825f856040516103fa919061082d565b908152602001604051809103902060020190816104179190610aae565b50815f85604051610428919061082d565b908152602001604051809103902060030190816104459190610aae565b50805f85604051610456919061082d565b908152602001604051809103902060040190816104739190610aae565b5060015f85604051610485919061082d565b90815260200160405180910390205f015f6101000a81548160ff021916908360ff16021790555050505050565b5f604051905090565b5f80fd5b5f80fd5b5f80fd5b5f80fd5b5f601f19601f8301169050919050565b7f4e487b71000000000000000000000000000000000000000000000000000000005f52604160045260245ffd5b610511826104cb565b810181811067ffffffffffffffff821117156105305761052f6104db565b5b80604052505050565b5f6105426104b2565b905061054e8282610508565b919050565b5f67ffffffffffffffff82111561056d5761056c6104db565b5b610576826104cb565b9050602081019050919050565b828183375f83830152505050565b5f6105a361059e84610553565b610539565b9050828152602081018484840111156105bf576105be6104c7565b5b6105ca848285610583565b509392505050565b5f82601f8301126105e6576105e56104c3565b5b81356105f6848260208601610591565b91505092915050565b5f60208284031215610614576106136104bb565b5b5f82013567ffffffffffffffff811115610631576106306104bf565b5b61063d848285016105d2565b91505092915050565b5f81519050919050565b5f82825260208201905092915050565b5f5b8381101561067d578082015181840152602081019050610662565b5f8484015250505050565b5f61069282610646565b61069c8185610650565b93506106ac818560208601610660565b6106b5816104cb565b840191505092915050565b5f6080820190508181035f8301526106d88187610688565b905081810360208301526106ec8186610688565b905081810360408301526107008185610688565b905081810360608301526107148184610688565b905095945050505050565b5f805f8060808587031215610737576107366104bb565b5b5f85013567ffffffffffffffff811115610754576107536104bf565b5b610760878288016105d2565b945050602085013567ffffffffffffffff811115610781576107806104bf565b5b61078d878288016105d2565b935050604085013567ffffffffffffffff8111156107ae576107ad6104bf565b5b6107ba878288016105d2565b925050606085013567ffffffffffffffff8111156107db576107da6104bf565b5b6107e7878288016105d2565b91505092959194509250565b5f81905092915050565b5f61080782610646565b61081181856107f3565b9350610821818560208601610660565b80840191505092915050565b5f61083882846107fd565b915081905092915050565b7f4e487b71000000000000000000000000000000000000000000000000000000005f52602260045260245ffd5b5f600282049050600182168061088757607f821691505b60208210810361089a57610899610843565b5b50919050565b7f45786973742049440000000000000000000000000000000000000000000000005f82015250565b5f6108d4600883610650565b91506108df826108a0565b602082019050919050565b5f6020820190508181035f830152610901816108c8565b9050919050565b5f819050815f5260205f209050919050565b5f6020601f8301049050919050565b5f82821b905092915050565b5f600883026109647fffffffffffffffffffffffffffffffffffffffffffffffffffffffffffffffff82610929565b61096e8683610929565b95508019841693508086168417925050509392505050565b5f819050919050565b5f819050919050565b5f6109b26109ad6109a884610986565b61098f565b610986565b9050919050565b5f819050919050565b6109cb83610998565b6109df6109d7826109b9565b848454610935565b825550505050565b5f90565b6109f36109e7565b6109fe8184846109c2565b505050565b5b81811015610a2157610a165f826109eb565b600181019050610a04565b5050565b601f821115610a6657610a3781610908565b610a408461091a565b81016020851015610a4f578190505b610a63610a5b8561091a565b830182610a03565b50505b505050565b5f82821c905092915050565b5f610a865f1984600802610a6b565b1980831691505092915050565b5f610a9e8383610a77565b9150826002028217905092915050565b610ab782610646565b67ffffffffffffffff811115610ad057610acf6104db565b5b610ada8254610870565b610ae5828285610a25565b5f60209050601f831160018114610b16575f8415610b04578287015190505b610b0e8582610a93565b865550610b75565b601f198416610b2486610908565b5f5b82811015610b4b57848901518255600182019150602085019450602081019050610b26565b86831015610b685784890151610b64601f891682610a77565b8355505b6001600288020188555050505b50505050505056fea2646970667358221220fb280b6450f1ed3aaa85b485f9427d279e4ffc9cf7bc192a2d7666bf2852f9be64736f6c63430008140033",
  "immutableReferences": {},
  "source": "// SPDX-License-Identifier: MIT\r\npragma solidity >=0.4.0 < 0.9.0;\r\n//  \r\n\r\n//    \r\ncontract user_info{\r\n    //     \r\n\r\n    //      \r\n    // mysql table  \r\n    struct info{\r\n        //     \r\n        uint8 state;\r\n        string id;\r\n        string password;\r\n        string name;\r\n        string phone;\r\n    }\r\n\r\n    // mapping  \r\n    // mapping ? \r\n    // json   -> key : value\r\n    //  ID    info   \r\n    // ex) {\r\n        //      ID : {\r\n        //          state : xxxx, \r\n        //          id : xxxxx,\r\n        //          password : xxxxx,\r\n        //          name : xxxx,\r\n        //          phone : xxxxxx\r\n        //      },        \r\n        //      ID2 : {\r\n        //          state : xxxx, \r\n        //          id : xxxxx,\r\n        //          password : xxxxx,\r\n        //          name : xxxx,\r\n        //          phone : xxxxxx\r\n        //      },\r\n        // } \r\n    mapping (string => info) internal users;\r\n\r\n    //     \r\n    function add_user(\r\n        string memory _id, \r\n        string memory _pass, \r\n        string memory _name, \r\n        string memory _phone\r\n    ) public {\r\n        //      \r\n        // state 0    . \r\n        // state 0    .\r\n        require(users[_id].state == 0, 'Exist ID');\r\n        // mapping  _id    value \r\n        users[_id].id = _id;\r\n        users[_id].password = _pass;\r\n        users[_id].name = _name;\r\n        users[_id].phone = _phone;\r\n        users[_id].state = 1;\r\n    }\r\n\r\n    //      \r\n    function view_info(\r\n        string memory _id\r\n    ) public view returns(\r\n        string memory, \r\n        string memory, \r\n        string memory, \r\n        string memory\r\n    ){\r\n        string memory id = users[_id].id;\r\n        string memory pass = users[_id].password;\r\n        string memory name = users[_id].name;\r\n        string memory phone = users[_id].phone;\r\n\r\n        return (id, pass, name, phone);\r\n    }\r\n\r\n\r\n\r\n}\r\n",
  "sourcePath": "C:\\Users\\moons\\Documents\\GitHub\\masan_block\\contract_server\\contracts\\user_info.sol",
  "compiler": {
    "name": "solc",
    "version": "0.8.20+commit.a1b79de6.Emscripten.clang"
  },
  "schemaVersion": "3.4.14",
  "updatedAt": "2023-05-25T10:24:42.135Z",
  "devdoc": {
    "kind": "dev",
    "methods": {},
    "version": 1
  },
  "userdoc": {
    "kind": "user",
    "methods": {},
    "version": 1
  }
}