{
  "contractName": "test",
  "abi": [
    {
      "inputs": [],
      "stateMutability": "nonpayable",
      "type": "constructor"
    },
    {
      "inputs": [
        {
          "internalType": "uint256",
          "name": "",
          "type": "uint256"
        }
      ],
      "name": "user_list",
      "outputs": [
        {
          "internalType": "address",
          "name": "",
          "type": "address"
        }
      ],
      "stateMutability": "view",
      "type": "function",
      "constant": true
    },
    {
      "inputs": [
        {
          "internalType": "address",
          "name": "_wallet",
          "type": "address"
        },
        {
          "internalType": "string",
          "name": "_name",
          "type": "string"
        },
        {
          "internalType": "uint8",
          "name": "_age",
          "type": "uint8"
        },
        {
          "internalType": "string",
          "name": "_birth",
          "type": "string"
        }
      ],
      "name": "add_user",
      "outputs": [],
      "stateMutability": "nonpayable",
      "type": "function"
    },
    {
      "inputs": [
        {
          "internalType": "address",
          "name": "_wallet",
          "type": "address"
        }
      ],
      "name": "view_user",
      "outputs": [
        {
          "internalType": "string",
          "name": "",
          "type": "string"
        },
        {
          "internalType": "uint8",
          "name": "",
          "type": "uint8"
        },
        {
          "internalType": "string",
          "name": "",
          "type": "string"
        }
      ],
      "stateMutability": "view",
      "type": "function",
      "constant": true
    }
  ],
  "bytecode": "0x608060405234801561001057600080fd5b50336000806101000a81548173ffffffffffffffffffffffffffffffffffffffff021916908373ffffffffffffffffffffffffffffffffffffffff1602179055506000600181905550610d20806100686000396000f3fe608060405234801561001057600080fd5b50600436106100415760003560e01c80630ceb6caa14610046578063871bb69514610062578063b0ce739d14610094575b600080fd5b610060600480360381019061005b91906106fd565b6100c4565b005b61007c6004803603810190610077919061079c565b6102ce565b60405161008b93929190610857565b60405180910390f35b6100ae60048036038101906100a991906108d2565b6104cd565b6040516100bb919061090e565b60405180910390f35b3373ffffffffffffffffffffffffffffffffffffffff1660008054906101000a900473ffffffffffffffffffffffffffffffffffffffff1673ffffffffffffffffffffffffffffffffffffffff1614610152576040517f08c379a000000000000000000000000000000000000000000000000000000000815260040161014990610975565b60405180910390fd5b82600260008673ffffffffffffffffffffffffffffffffffffffff1673ffffffffffffffffffffffffffffffffffffffff16815260200190815260200160002060000190816101a19190610ba1565b5081600260008673ffffffffffffffffffffffffffffffffffffffff1673ffffffffffffffffffffffffffffffffffffffff16815260200190815260200160002060010160006101000a81548160ff021916908360ff16021790555080600260008673ffffffffffffffffffffffffffffffffffffffff1673ffffffffffffffffffffffffffffffffffffffff168152602001908152602001600020600201908161024c9190610ba1565b506003849080600181540180825580915050600190039060005260206000200160009091909190916101000a81548173ffffffffffffffffffffffffffffffffffffffff021916908373ffffffffffffffffffffffffffffffffffffffff160217905550600160008154809291906102c390610ca2565b919050555050505050565b606060006060600260008573ffffffffffffffffffffffffffffffffffffffff1673ffffffffffffffffffffffffffffffffffffffff168152602001908152602001600020600001600260008673ffffffffffffffffffffffffffffffffffffffff1673ffffffffffffffffffffffffffffffffffffffff16815260200190815260200160002060010160009054906101000a900460ff16600260008773ffffffffffffffffffffffffffffffffffffffff1673ffffffffffffffffffffffffffffffffffffffff1681526020019081526020016000206002018280546103b4906109c4565b80601f01602080910402602001604051908101604052809291908181526020018280546103e0906109c4565b801561042d5780601f106104025761010080835404028352916020019161042d565b820191906000526020600020905b81548152906001019060200180831161041057829003601f168201915b50505050509250808054610440906109c4565b80601f016020809104026020016040519081016040528092919081815260200182805461046c906109c4565b80156104b95780601f1061048e576101008083540402835291602001916104b9565b820191906000526020600020905b81548152906001019060200180831161049c57829003601f168201915b505050505090509250925092509193909250565b600381815481106104dd57600080fd5b906000526020600020016000915054906101000a900473ffffffffffffffffffffffffffffffffffffffff1681565b6000604051905090565b600080fd5b600080fd5b600073ffffffffffffffffffffffffffffffffffffffff82169050919050565b600061054b82610520565b9050919050565b61055b81610540565b811461056657600080fd5b50565b60008135905061057881610552565b92915050565b600080fd5b600080fd5b6000601f19601f8301169050919050565b7f4e487b7100000000000000000000000000000000000000000000000000000000600052604160045260246000fd5b6105d182610588565b810181811067ffffffffffffffff821117156105f0576105ef610599565b5b80604052505050565b600061060361050c565b905061060f82826105c8565b919050565b600067ffffffffffffffff82111561062f5761062e610599565b5b61063882610588565b9050602081019050919050565b82818337600083830152505050565b600061066761066284610614565b6105f9565b90508281526020810184848401111561068357610682610583565b5b61068e848285610645565b509392505050565b600082601f8301126106ab576106aa61057e565b5b81356106bb848260208601610654565b91505092915050565b600060ff82169050919050565b6106da816106c4565b81146106e557600080fd5b50565b6000813590506106f7816106d1565b92915050565b6000806000806080858703121561071757610716610516565b5b600061072587828801610569565b945050602085013567ffffffffffffffff8111156107465761074561051b565b5b61075287828801610696565b9350506040610763878288016106e8565b925050606085013567ffffffffffffffff8111156107845761078361051b565b5b61079087828801610696565b91505092959194509250565b6000602082840312156107b2576107b1610516565b5b60006107c084828501610569565b91505092915050565b600081519050919050565b600082825260208201905092915050565b60005b838110156108035780820151818401526020810190506107e8565b60008484015250505050565b600061081a826107c9565b61082481856107d4565b93506108348185602086016107e5565b61083d81610588565b840191505092915050565b610851816106c4565b82525050565b60006060820190508181036000830152610871818661080f565b90506108806020830185610848565b8181036040830152610892818461080f565b9050949350505050565b6000819050919050565b6108af8161089c565b81146108ba57600080fd5b50565b6000813590506108cc816108a6565b92915050565b6000602082840312156108e8576108e7610516565b5b60006108f6848285016108bd565b91505092915050565b61090881610540565b82525050565b600060208201905061092360008301846108ff565b92915050565b7f4f6e6c79206f776e65722063616e2063616c6c2066756e74696f6e0000000000600082015250565b600061095f601b836107d4565b915061096a82610929565b602082019050919050565b6000602082019050818103600083015261098e81610952565b9050919050565b7f4e487b7100000000000000000000000000000000000000000000000000000000600052602260045260246000fd5b600060028204905060018216806109dc57607f821691505b6020821081036109ef576109ee610995565b5b50919050565b60008190508160005260206000209050919050565b60006020601f8301049050919050565b600082821b905092915050565b600060088302610a577fffffffffffffffffffffffffffffffffffffffffffffffffffffffffffffffff82610a1a565b610a618683610a1a565b95508019841693508086168417925050509392505050565b6000819050919050565b6000610a9e610a99610a948461089c565b610a79565b61089c565b9050919050565b6000819050919050565b610ab883610a83565b610acc610ac482610aa5565b848454610a27565b825550505050565b600090565b610ae1610ad4565b610aec818484610aaf565b505050565b5b81811015610b1057610b05600082610ad9565b600181019050610af2565b5050565b601f821115610b5557610b26816109f5565b610b2f84610a0a565b81016020851015610b3e578190505b610b52610b4a85610a0a565b830182610af1565b50505b505050565b600082821c905092915050565b6000610b7860001984600802610b5a565b1980831691505092915050565b6000610b918383610b67565b9150826002028217905092915050565b610baa826107c9565b67ffffffffffffffff811115610bc357610bc2610599565b5b610bcd82546109c4565b610bd8828285610b14565b600060209050601f831160018114610c0b5760008415610bf9578287015190505b610c038582610b85565b865550610c6b565b601f198416610c19866109f5565b60005b82811015610c4157848901518255600182019150602085019450602081019050610c1c565b86831015610c5e5784890151610c5a601f891682610b67565b8355505b6001600288020188555050505b505050505050565b7f4e487b7100000000000000000000000000000000000000000000000000000000600052601160045260246000fd5b6000610cad8261089c565b91507fffffffffffffffffffffffffffffffffffffffffffffffffffffffffffffffff8203610cdf57610cde610c73565b5b60018201905091905056fea26469706673582212205df9926e3c09f2e4640efc7d130e677e4d3d576ff743c915bcf7328a621c88dd64736f6c63430008130033",
  "immutableReferences": {},
  "source": "// SPDX-Lisence-Identifier: MIT\r\npragma solidity ^0.8.19;\r\n\r\ncontract test {\r\n\r\n    //  \r\n    // solidity   \r\n    // ( ) (  ) ( )\r\n    address internal owner;\r\n    uint internal count;\r\n    \r\n    //  \r\n    //        \r\n    constructor() {\r\n        //    owner.\r\n        //     msg.sender\r\n        owner = msg.sender;\r\n        count = 0;\r\n    }\r\n\r\n    //  :    . \r\n    // js json  . \r\n    struct user_info{\r\n        string name;\r\n        uint8 age;\r\n        string birth;\r\n    }\r\n    //   \r\n    // {'name' : ????, 'age' : ????, 'brith' : ????}\r\n\r\n    // mapping  \r\n    // {key : value, key2 : value2, key3 : value3, .....}\r\n    // key  string, address, uint\r\n    // value  string, addres, uint, [], struct\r\n    mapping(address => user_info) internal users;\r\n\r\n    //  \r\n    address[] public user_list;\r\n\r\n    // modifier \r\n    //   ->   \r\n    modifier onlyOwner{\r\n        // transaction    owner   \r\n        require(owner == msg.sender, \"Only owner can call funtion\");\r\n        _;\r\n    }\r\n    modifier count_user{\r\n        _;\r\n        count++;\r\n    }\r\n\r\n    function add_user(\r\n        address _wallet, \r\n        string memory _name, \r\n        uint8 _age, \r\n        string memory _birth\r\n    ) public onlyOwner count_user {\r\n        // mapping  \r\n        users[_wallet].name = _name;\r\n        users[_wallet].age = _age;\r\n        users[_wallet].birth = _birth;\r\n        //    \r\n        user_list.push(_wallet);\r\n    }\r\n\r\n    function view_user(\r\n        address _wallet\r\n    ) public view returns (\r\n        string memory, \r\n        uint8, \r\n        string memory\r\n    ){\r\n        return (\r\n            users[_wallet].name, \r\n            users[_wallet].age, \r\n            users[_wallet].birth\r\n        );\r\n    }\r\n}",
  "sourcePath": "C:\\Users\\moons\\Documents\\GitHub\\masan_block\\web3_server\\contracts\\test.sol",
  "compiler": {
    "name": "solc",
    "version": "0.8.19+commit.7dd6d404.Emscripten.clang"
  },
  "schemaVersion": "3.4.14",
  "updatedAt": "2023-06-15T10:45:41.235Z",
  "networkType": "ethereum",
  "devdoc": {
    "kind": "dev",
    "methods": {},
    "version": 1
  },
  "userdoc": {
    "kind": "user",
    "methods": {},
    "version": 1
  }
}